:020000040800F2
:10000000906B00109D010008899800080175000898
:1000100021920008051A000849A500080000000008
:10002000000000000000000000000000659B0008C8
:10003000251A0008000000008B980008339C000877
:10004000B7010008B7010008B7010008B7010008B0
:10005000B7010008B7010008B7010008B7010008A0
:10006000B7010008B7010008B7010008B701000890
:10007000B7010008B7010008B7010008B701000880
:10008000B7010008B7010008C9160008B701000849
:10009000B7010008B7010008B7010008B701000860
:1000A0002D9D00084D9D00083D9D0008B7010008EA
:1000B0005D9D00086D9D00087D9D0008B70100084A
:1000C000B7010008B7010008B7010008B701000830
:1000D000B7010008E5A40008F5A4000805A500087C
:1000E000B7010008D9980008B7010008B701000857
:1000F000B7010008B7010008B7010008B701000800
:10010000B7010008B70100088D9D0008B70100087D
:100110000D9F00081D9F00089D9D0008AD9D0008D3
:10012000B7010008B7010008B7010008B7010008CF
:10013000B70100080000000000000000B70100083F
:10014000B7010008B7010008B7010008B7010008AF
:10015000B7010008B7010008B701000815A500089D
:10016000B7010008B7010008B7010008B70100088F
:10017000B7010008B70100080000000000000000FF
:10018000B7010008B7010008DFF80CD000F0B0FE9E
:100190000048004771DA0008906B0010064880475D
:1001A00006480047FEE7FEE7FEE7FEE7FEE7FEE75C
:1001B000FEE7FEE7FEE7FEE7119D00088901000863
:1001C0002DE9F05F0546002092469B46884606468C
:1001D000814640241BE0284641464746224600F01F
:1001E0008CFC53465A46C01A914110D3114618460A
:1001F000224600F073FC2D1A67EB01084F46224699
:100200000120002100F06AFC17EB00094E41201E7E
:10021000A4F10104DFDC484631462A464346BDE8E6
:10022000F09F00000649074A0868504343F239022C
:10023000104408604008704701490860704700009A
:10024000980500106D4EC64138B5D0E90221491E0F
:1002500001EB410102EBC1014268C1EB011102EB6C
:1002600081010268C1EB011102EB8102D0E9043186
:1002700001EB410103EB81013023A1F5527191FBA8
:10028000F3F4174D6C4302EBC41291FBF3F403FB40
:10029000141100921A2902DB124B1A4400920C220C
:1002A00091FBF2F3104C6343009C04EBC3130093E7
:1002B00091FBF2F302FB13110C4A08E0491E40F2D5
:1002C000A324535C6343009C04EBC31300930029F5
:1002D000F4DC0146684600F039FC009838BD0000A7
:1002E0003F0C0F008051010067C203006415020833
:1002F000F0B52A4B2A4C85B00021826902EB4202FC
:100300000A44491CA25C03F8012B0329F5DB244CA9
:100310004FF0200C002103F801CB1534026902EBE9
:1003200042020A44491CA25C03F8012B0329F5DBB5
:10033000C16800918168019141680291016803914F
:10034000406918A200F26C706C460A27049017E00E
:1003500003F8010B12F8010F08B1022500E0042593
:1003600002CC284607E091FBF7F607FB161691FB37
:10037000F7F130361E54061EA0F10100F3DC2B44C9
:1003800010780028E4D11F7058700448017A302991
:1003900001D180F808C005B00048F0BD480B00103E
:1003A0007015020820203A3A2000000010B5431AC8
:1003B000934209D28318881803E010F8011D03F84E
:1003C000011D521EF9D210BD40EA01039B0703D064
:1003D00009E008C9121F08C0042AFAD203E011F884
:1003E000013B00F8013B521EF9D210BDD2B201E030
:1003F00000F8012B491EFBD270470022F6E710B52A
:1004000013460A4604461946FFF7F0FF204610BD82
:1004100030B505462A460B4612F8010B13F8014B7E
:1004200008B1A042F8D01CB1002802D06D1CF1E741
:10043000284630BD421C10F8011B0029FBD1801A50
:10044000704730B504460020034600E05B1C934231
:1004500003D2E05CCD5C401BF8D030BD10B5484302
:1004600004460EF065FD002805D00021002C02D0C6
:10047000641E0155FAE710BD0FB400B58DB010A988
:1004800009900B9000914FF0FF300A9000200C90E3
:1004900005480690054807906A4609A80F9900F09C
:1004A000AFFB0DB05DF814FB1D0C00083B0C000801
:1004B0002DE9FF5F1D464FF0FF3BD5E90146914610
:1004C0005F464FF00008A9697F1C01988847296A98
:1004D000824688470028F6D1BAF1FF3F0CD024F4B9
:1004E000C064002E19DD600614D5BAF12B0F09D0B7
:1004F000BAF12D0F0ED103E0584604B0BDE8F09FCD
:1005000044F48064A9697F1C01988847761E82465E
:10051000002E02DDBAF1300F03D0B9F1000F26D062
:1005200032E0A969761E44F400747F1C0198884764
:100530008246002E05DDBAF1780F06D0BAF1580FC9
:1005400003D0B9F1000F10D01EE0B9F1000F02D0B6
:10055000B9F1100F18D1A969761E24F400747F1C1C
:10056000019888478246102002E0082000E00A2017
:10057000814609E008FB0908A969761E44F4007465
:100580007F1C019888478246002E05DD494650466B
:1005900000F022FB0028EDDAE96901988847A00500
:1005A00002D46FF00100A8E7E00725D1600613D55B
:1005B000600502D5C8F1000000E0404629680A1D28
:1005C0002A600968220501D5087015E0220701D5C7
:1005D000088011E008600FE02868011D29600068AC
:1005E000210502D580F8008006E0210702D5A0F899
:1005F000008001E0C0F8008038467EE72DE9FF5F0B
:10060000D2E901A74FF00008916999461446DDF838
:1006100038B0464601988847054659EA0B0005D090
:1006200009E0A169761C019888470546216A284699
:1006300088470028F5D1681C03D05FEACA7005D04E
:1006400015E04FF0FF3004B0BDE8F09F2068011DB9
:100650002160D0F800800AE05FEACA7001D108F892
:10066000015BA169761C7F1E019888470546002F13
:100670001ADD681C18D0B9F1000F0DD0E81705EB92
:10068000D060421120F01F0059F822102A1A0120D0
:1006900090400142E0D107E0BBF1000FDCD1216ABC
:1006A000284688470028D7D0E16901988847BBF1E0
:1006B000000F07D1002E05DD5FEACA7002D10021CC
:1006C00088F80010A068B84203DDBBF1000F03D02A
:1006D00017B16FF00100B6E73046B4E770B50646D3
:1006E00009F09CFF046805460A220021304600F00C
:1006F00003FB2C6070BD70B5064609F08FFF0468DF
:1007000005460A220021304600F0F6FA2C6070BD42
:100710002DE9FE4F804681EA0300C00F0C46009091
:1007200021F0004123F00045B8EB0200A94105D2B9
:100730004046214690461C460B46024623F00040A8
:10074000104347D0270DC7F30A00C3F30A510290A4
:10075000401A019040286BDAC3F3130040F4801B69
:100760000098924620B10023D2EB030A63EB0B0BF7
:1007700001985946C0F14002504600F0AFF90646D4
:100780000D4650465946019A00F0C7F910EB080093
:100790006141002487EA115284EAE7731A4340D08A
:1007A000009A62B3019A012A4FEA075215DC001B36
:1007B00061EB02014FF0004202EA0752CDE900422C
:1007C000001C41F5801132462B4600F013FB03B0AC
:1007D000BDE8F08F40462146F9E7001B61EB0201BE
:1007E000001C41F5801300185B412018A2F500178A
:1007F00047EB030140EAD570B6196D4111E06D0871
:100800004FEA360645EAC0754FEA0752001B61EB16
:100810000201001C41F5801149084FEA300000191F
:10082000514132462B4603B0BDE8F04F00F0D3BA39
:100830000098012240000023D0EB020263EBE0733A
:10084000009821464FEAE074B8EB000061EB040128
:10085000E9E783F000435BE781F0004158E72DE9C9
:10086000FE4F81EA030404F0004421F000410094AB
:100870004FF0000B23F0004350EA01045ED052EA2F
:1008800003045BD0C3F30A54C1F30A552C44A4F209
:10089000F3340194A0FB0254C1F3130141F480111D
:1008A000C3F3130343F4801301FB024400FB034E24
:1008B000840A970A44EA815447EA8357A4FB0768ED
:1008C00002958D0A05FB07854FEA932C04FB0C5417
:1008D0002705029D4FEA065847EA1637B5EB08058B
:1008E0006EEB070C870E920E47EA811742EA8312DD
:1008F000A7FB0201B6EB0B0164EB00042B0D43EAEE
:100900000C335E1844EB1C50DA465146E7FB0201FB
:10091000C5F313044FEA0B3343EA14534FEA04328E
:10092000019C43EA0603A4F10C040294009CCDE967
:1009300000B400F05FFA03B0BDE8F08F002001467C
:10094000F9E72DE9F04D81EA030404F0004B21F0B2
:10095000004514464FF0000A23F0004150EA05021A
:1009600020D054EA01021DD0C5F30A570246C5F350
:100970001303C1F31300C1F30A5640F4801543F486
:100980008013A7EB0608101BD64608F2FD3873EB60
:10099000050002D308F1010801E092185B41B8F1AB
:1009A000000F03DA00200146BDE8F08D00204FF46F
:1009B0008011064684460EE0171B73EB050705D32E
:1009C000121B63EB050306434CEA010C49084FEA8E
:1009D000300092185B4150EA0107EDD152EA030062
:1009E00012D082EA040083EA0501084305D0101BF7
:1009F000AB4106D20122002306E000224FF0004363
:100A000002E06FF0010253101AEB06004CEB0851A4
:100A100010EB0A0041EB0B01BDE8F04D00F0DBB933
:100A200000F0004230F000400AD0C10D01F56071C5
:100A3000C0F3160042EA0151C20840071143704753
:100A4000002001467047000030B5041E71F100041B
:100A500004DB4FF00044404264EB0101141E73F1CB
:100A6000000405DB1C464FF00043524263EB0403D5
:100A70008B4208BF824230BD01F0004330B421F008
:100A8000004150EA010206D00A0DA2F56072C1F3DE
:100A90001301002A02DC30BC00207047440F44EAF6
:100AA000C104C100E01830BC00EBC25000F05CB9DA
:100AB00030B50B46014600202022012409E021FA2E
:100AC00002F59D4205D303FA02F5491B04FA02F52B
:100AD0002844151EA2F10102F1DC30BD202A04DBFE
:100AE000203A00FA02F1002070479140C2F1200341
:100AF00020FA03F3194390407047202A04DB203A80
:100B000021FA02F00021704721FA02F3D040C2F12D
:100B100020029140084319467047202A06DBCB1774
:100B2000203A41FA02F043EAE07306E041FA02F3A8
:100B3000D040C2F12002914008431946704700009E
:100B4000014900F003B80000640B001010B5006804
:100B50003C22B0FBF2F302FB1303B0FBF2F00B609C
:100B6000B0FBF2F302FB1303B0FBF2F018224B6070
:100B7000B0FBF2F302FB1303B0FBF2F0021D8B603B
:100B80000723B2FBF3F403FB1422800040F2B553B9
:100B900000F66C308A61B0FBF3F2B0FBF3F403FBB8
:100BA0001400443280084A61C8613B2802D392078E
:100BB00000D0401C0022074C13460A61E25C8242CE
:100BC00003D8801A5B1C0B61F8E7401CC86008461C
:100BD00010BD0000A91502083A2800D2303820F0D4
:100BE0002002412A01D3A2F13700884201D34FF0FD
:100BF000FF3070470268114413780160184670474F
:100C0000D16004495161044911620021116111460A
:100C100000F08EB9F50B00081D0F0008426842B1C4
:100C2000016811F8013B23B1521EC0E900121846B9
:100C300070470121C160881E704742685AB1C3687D
:100C4000016843B983688B4205D0491E521CC0E934
:100C50000012002070474FF0FF3070470FB40023A0
:100C600000B589B00CA900910B996FF00042CB60E0
:100C70001E4B06931E4B07930423CDE901321D4AF8
:100C8000089202466B46002000F07CFB09B05DF83C
:100C900014FB70B586B006464FF0FF300091CDE9E9
:100CA0000101002015460C4604903246694604A80E
:100CB000FFF7D4FF02460498211825B108B1084671
:100CC00000E020462860049800280DD0002A02DDAC
:100CD0000098884208D0081B0094CDE901043246F0
:100CE000694604A8FFF7BAFF06B070BD1D0C0008E6
:100CF0003B0C00081D0F00082DE9F04791460F46F8
:100D000080460446002614F8015B2DB100F002F97C
:100D10000068405DC007F6D12B2D02D02D2D18D0D4
:100D2000641E4A463946204600F048FC27B139681F
:100D3000A14201D1C7F8008071054FF002040BD524
:100D40004042002803DD09F069FC0460A007BDE80B
:100D5000F08746F48066E4E70028F8DA09F05EFCE4
:100D600004606FF00040F2E70029A8BF7047401C04
:100D7000490008BF20F00100704710B4B0FA80FCB1
:100D800000FA0CF050EA010404BF10BC704749B1EE
:100D9000CCF1200421FA04F411FA0CF118BF01215E
:100DA00021430843A3EB0C01CB1D4FEA00614FEA3E
:100DB000102042BF002010BC704700EBC35010440D
:100DC0000029A4BF10BC7047401C490008BF20F098
:100DD000010010BC704710B5141E73F1000408DA4E
:100DE000401C41F1000192185B411A4301D120F0EF
:100DF000010010BD2DE9F04D92469B4611B1B1FAAC
:100E000081F202E0B0FA80F220329046FFF766FEEF
:100E100004460F4640EA0A0041EA0B0153465A468F
:100E2000084313D0114653EA010019D0C8F140021B
:100E30005046FFF762FE05460E465046594642466A
:100E4000FFF74CFE084305D0012004E02046394658
:100E5000BDE8F08D0020054346EAE0762C43374399
:100E60000A986305E40AA0EB08000022FD0A44EAA0
:100E700047540A3002D500200146E9E70105101960
:100E80006941DDE9084500196941BDE8F04DA2E777
:100E9000C1F30A52C1F3130140F2FF3341F4801150
:100EA0009A4202DA00200146704740F233439A42E8
:100EB000A2F2334202DC5242FFF71FBEFFF70EBE22
:100EC00030B5041E71F1000404DB4FF000444042D1
:100ED00064EB0101141E73F1000405DB1C464FF0A6
:100EE0000043524263EB0403994208BF904230BD75
:100EF000064C074D06E0E06840F0010394E8070067
:100F000098471034AC42F6D3FFF742F98C2602081A
:100F1000CC260208004870473816020810B504466F
:100F2000FFF7F8FF0068005D00F0010010BD000051
:100F30002DE9F34F8BB04FF0000801F10C000C4687
:100F40004FF0010B46460DF1080A0190626901213C
:100F500001989047051E2DD0252D2CD0216A884759
:100F6000C0B16269012101989047216A8847002831
:100F7000F7D1411E62690198904700E0761CA16993
:100F80000B988847216A88470028F7D1E1690B98B8
:100F90008847DBE7A1690B9888470746A84201D13B
:100FA000761CD3E7E1690B9888477F1C02D1B8F122
:100FB000000F6FD046E1002762693D46394601982F
:100FC00090472A2804D162690121019890470125A0
:100FD000DFF884926269012101989047A0F1300105
:100FE0000A290AD24F45E5DC07EB870100EB4107F0
:100FF000303FDFD445F01005ECE7E90601D46FF08F
:1010000000476C280AD04C2814D0682815D06A28CC
:101010000DD074281CD07A281AD01DE062690121F5
:10102000019890476C2802D045F0040514E045F083
:1010300002050DE045F020050AE0626901210198F2
:101040009047682802D045F0080505E045F40065A2
:101050006269012101989047C4E9015765283DD094
:1010600019DC58287AD00CDC452837D004DC252838
:1010700026D0412831D131E046282FD047282CD125
:101080002CE05B2877D0612828D063287CD06428A6
:1010900023D15AE0D0E06F2848D008DC66281DD064
:1010A00067281BD0692821D06E2816D127E0702828
:1010B00045D0732868D0752847D078280DD14DE0E9
:1010C000A1690B988847054625283FF469AFE16977
:1010D0000B9888476D1C3FF46AAFB3E023466A461D
:1010E0006FF001000B9900F04DF99EE045F04000D3
:1010F0006060A80723464FF0000236D43EE0E807C0
:101100007FF447AF2068011D21600068290501D5E3
:1011100006701BE7290701D5068017E7A90703D545
:10112000F117C0E9006111E706600FE745F04000E4
:101130006060A80723464FF0080216D41EE040F670
:101140000E0125EA0100606016E045F04000606095
:10115000A80723464FF00A0207D40FE045F04000ED
:101160006060A80708D5234610226FF001000B9994
:10117000AFF3008059E007E0234610226FF0010032
:101180000B99FFF795F950E04FF000094F464B4699
:10119000632802D05B2806D040E0E80601D4012095
:1011A000A06001273AE062690121019890475E281A
:1011B00005D14FF0010962694946019890472169BC
:1011C00039B900210A46534643F82120491C082911
:1011D000FADBB0B3216969B9C11700EBD1625311D1
:1011E0000AEB830122F01F02821A01200B68904053
:1011F00003430B6062690121019890475D28E8D1A3
:10120000B9F1000F09D00020514651F82020D243F7
:1012100041F82020401C0828F7DB02AB224600974B
:101220006FF001000B99FFF7E9F900280CDA401C78
:1012300008D1BBF1000F05D04FF0FF300DB0BDE875
:10124000F08FFFE74046F9E7E90701D108F101080F
:1012500006444FF0000B79E6CCCCCC0C2DE9FF4FC7
:10126000087883B09946FF2805D0491C2D2804D062
:101270000024002008E000200BE00124F9E700EB47
:10128000800003EB4000491C0B78FF2BF7D104B121
:10129000404200230293147819461D462D2C01D09C
:1012A0002B2C04D1521C2D2C13D000240294AA46BE
:1012B0001478FF2C0FD00A25A3FB057801FB0581CC
:1012C0004FF0000C03FB0C11521CE3194AEB010117
:1012D000EEE70124EAE7814453EA010002D019F560
:1012E000C87F06DA03980021C0E9001107B0BDE805
:1012F000F08F0025AE4E2F46DFF8B882184600F07A
:10130000ACF9CDE90001B9F1000002DAC9F100043D
:1013100000E004460023A74A1AEB030B42EB045AF1
:1013200012E0E00707D02A46334638464146FFF729
:1013300096FA074688462A46334610461946FFF76E
:101340008EFA05460E466410002CEAD1DDE9000154
:10135000B9F1000F5A46534606DAFFF7F2FA3A4659
:101360004346FFF7EEFA05E0FFF779FA3A464346BF
:10137000FFF775FA029A0AB181F00041039AC2E9B7
:101380000001B3E72DE9FF4F1F468DB0D7E90146B5
:101390004FF0FF382E2045464FF000090B90B969F9
:1013A0006D1C0E988847396A824688470028F6D116
:1013B000BAF1FF3F0AD024F4D064002E11DDBAF157
:1013C0002B0F08D0BAF12D0F0BD102E0404611B01F
:1013D0008DE744F48064B9696D1C0E988847824695
:1013E000761E6946600501D52D2000E02B208DF882
:1013F000000001F1010B0DF1200809E0B9696D1C35
:101400000E98884782460F9844F40074761E056053
:10141000002E02DDBAF1300FF0D00B998A453ED193
:1014200044F0800406E00F99681CA9F1010944F416
:1014300000740860B9696D1C761E0E988847824654
:101440003028F0D02BE00B998A4505D1200603D433
:1014500044F08004761E18E0504609F0DFF908B326
:101460000DF11301761E44F400748B4508D2AAF1E5
:1014700030000BF8010B200607D5A9F1010003E0AD
:10148000200602D409F101008146A00502D50F997A
:10149000681C0860B9696D1C0E9888478246002E4A
:1014A000D1DC53E0002E51DDBAF1650F02D0BAF164
:1014B000450F4BD1A00549D5B9696D1C24F4407482
:1014C000761E0E9888478246002E0CDD2B2804D00D
:1014D000BAF12D0F07D144F48074B9696D1C0E98D0
:1014E00088478246761EE00501D52D2100E02B219C
:1014F00008F8011BCDF82C8021E00DF12901761EA2
:1015000044F4007488450CD2AAF1300010F0FF00BA
:1015100088F8000002D10B99884509D908F1010823
:1015200006E0E00501D5244801E042F20F70814653
:10153000B9696D1C0E98884782460F980560002E89
:1015400004DD504609F06AF90028D6D1F9690E98F1
:101550008847FF208BF8000088F8000000200690E4
:1015600007904B466A4608A906A8FFF777FEA00534
:1015700002D46FF001002AE714F0240F0AD0E0072C
:1015800014D1DDE906123868031D3B600068C0E92C
:1015900000120BE0DDE90601FFF76EFA0146E007F5
:1015A00004D13868021D3A600068016028460EE7E1
:1015B000000014400000F03FF1D8FFFF2DE9F05F7C
:1015C00082460078002715468B460AF10104B94689
:1015D000302801D09DB113E014F8010B01277828C1
:1015E00003D0582801D045B10AE00DB1102D07D124
:1015F0000027102514F8010B02E0082500E00A2559
:101600000026B0460EE005FB080005FB06F10127A9
:1016100001EB10461FFA80F8B6F5803F00D3B946BB
:1016200014F8010B2946FFF7D7FA0028EBDABBF1D3
:10163000000F05D00FB1641E00E05446CBF8004007
:10164000B9F1000F06D008F0E9FF02210160C81EC1
:10165000BDE8F09F48EA0640FAE70EB540F2334293
:1016600002920022CDE900221346FFF7C3FB03B02C
:1016700000BD70B58C1810F8015B15F0070301D19F
:1016800010F8013B2A1106D110F8012B03E010F8E5
:10169000016B01F8016B5B1EF9D12B0705D4002308
:1016A000521E0DD401F8013BFAE710F8013BCB1AAA
:1016B000921C03E013F8015B01F8015B521EF9D59F
:1016C000A142D8D3002070BD10B5024802F0E9FE57
:1016D00010BD000084000020F8B5054603F098F91D
:1016E0000646002442E0D8208DF8000040F2712028
:1016F000604305EB0010000C8DF8010040F27120F2
:10170000604305EB0010000A8DF8020001206043E1
:1017100005EB0010C0B28DF8030000F045F900227F
:101720004021144803F06EF94FF47A73042269469D
:10173000114804F06FFC012240210E4803F062F9C9
:101740000BE003F065F9801B46F2A811884204D92A
:101750000AA008F00BFF0320F8BD00F01BF80228D8
:10176000EFD0642002F06CFF601CC4B20A2CBADB1C
:101770000020F1E70004024040010020657261731F
:101780006520666C6173682074696D656F7574217E
:101790000D0A00001CB512A0006801900022402133
:1017A000104803F02FF94FF47A73012201A90E4873
:1017B00004F030FC4FF47A73012269460A4804F0C1
:1017C00077FB01224021074803F01CF99DF8000037
:1017D00000F0010008B102201CBD0020FCE7000061
:1017E00005000000000402404001002010B500F098
:1017F00059F8FFF7CFFF10BDF8B505460C46164661
:1018000003208DF80000200C8DF80100200A8DF8CF
:101810000200E0B28DF80300002240210D4803F0E1
:10182000F1F84FF47A73042269460B4804F0F2FB96
:10183000B2B24FF47A732946074804F039FB08B175
:101840000120F8BD01224021024803F0DBF800200E
:10185000F7E70000000402404001002038B50446CC
:101860000DA000680090002240210C4803F0CAF847
:101870004FF47A7304226946094804F0CBFB4FF415
:101880007A7302222146064804F012FB012240210D
:10189000024803F0B7F838BD900000000004024091
:1018A0004001002008B50AA00068009000224021F5
:1018B000084803F0A7F84FF47A73022269460648F5
:1018C00004F0A8FB01224021024803F09BF808BD68
:1018D0006699000000040240400100202DE9F84F05
:1018E00081460D46174603F093F88246002401E036
:1018F00004F58074AC42FBD9661BBE4200D93E465B
:101900002C4605EB070800BF02208DF80000200CD4
:101910008DF80100200A8DF80200E0B28DF8030076
:1019200000F042F8002240211D4803F06BF84FF40C
:101930007A73042269461B4804F06CFB10B1012045
:10194000BDE8F88FB2B24FF47A734946154804F0F7
:1019500061FB08B10120F3E701224021104803F0A8
:1019600051F808E003F054F8A0EB0A00B0F57A7FD4
:1019700001D90320E4E7FFF70DFF0228F2D0344439
:10198000B14404F58070404502D9A8EB040001E0A1
:101990004FF4807006464445B6D30020D0E70000DF
:1019A000000402404001002038B513A000680090F8
:1019B00003F02EF8044600224021104803F022F8DC
:1019C0004FF47A73012269460D4804F023FB01228B
:1019D00040210A4803F016F807E003F019F8001B4D
:1019E000B0F57A7F01D9032038BDFFF7D3FE022876
:1019F000F3D00020F8E700000600000000040240D9
:101A00004001002002A008F0B1FD00BFFEE7000089
:101A10004275734661756C745F48616E646C657283
:101A20000A0D00007047704710B5002201B909E0A7
:101A3000012901D10A0205E0022901D10A0201E0CF
:101A40004FF440720E4B1B6823F440730C4C236020
:101A500023461B681343236023461B6823F0F803C7
:101A6000236023461B68022444EAC0042343044C39
:101A7000236023461B6843F48033236010BD0000BD
:101A8000103C02401C48006800F40070B0B11A48D5
:101A9000006820F400701849086000BF084600681C
:101AA00040F4006008600846006820F400600860A8
:101AB00000BF0846006840F4007008600E480068E7
:101AC00000F48060B0B10C48006820F480600A49DE
:101AD000086000BF0846006840F48050086008466F
:101AE000006820F48050086000BF0846006840F499
:101AF0008060086070470000003C02400A4A12689B
:101B000022F44072084B1A601A46126842F004022E
:101B10001A601A4612684FF4803343EA00231A43CE
:101B2000014B1A6070470000103C0240074A1268DF
:101B300022F44072054B1A601A4612681A601A465F
:101B4000126842F001021A6001707047103C0240B6
:101B500010B50D49096821F440710B4C21602146F4
:101B6000096841F4407121602146096841F0010192
:101B70002160026000BF00BF00BFBFF36F8F00BFD6
:101B800000BF00BF436010BD103C0240084A12680D
:101B900022F44072064B1A601A46126842F48072B0
:101BA0001A601A46126842F001021A6001807047FA
:101BB000103C0240084A126822F44072064B1A6038
:101BC0001A46126842F400721A601A46126842F00D
:101BD00001021A6001607047103C024030B50346B4
:101BE0001C46002002E025580D50401C9042FAD3BC
:101BF00030BD00002348006800F0100040B12248CA
:101C0000C06940F010002049C86110201D490860DB
:101C10001C48006800F0200040B11B48C06940F03B
:101C200008001949C8612020164908601548006855
:101C300000F0400040B11448C06940F0040012496F
:101C4000C86140200F4908600E48006800F080001D
:101C500040B10D48C06940F002000B49C8618020C6
:101C6000084908600748006800F0020040B10648D3
:101C7000C06940F020000449C861022001490860A1
:101C8000704700000C3C0240280A001070B5044662
:101C9000002500201449C86102F0BAFE054609E09B
:101CA000601C38B124B102F0B3FE401BA04201D940
:101CB000032070BD0D48006800F480300028EFD18B
:101CC0000A48006800F0010010B1012007490860CF
:101CD0000648006800F0F20018B1FFF78BFF012002
:101CE000E7E70020E5E70000280A00100C3C02406E
:101CF0002DE9F04F87B005460E4617469846DDF8A9
:101D000040A04FF0010B02E002F05AFD8346BBF108
:101D1000000FF9D1A94600200290CDF81080CDF82F
:101D200014A0012006900020019001A902A802F051
:101D30009BFC00240FE002E0642009F08FFA16F803
:101D400004C009EB040162460023184602F0ECFCD3
:101D50000028F1D1641CBC42EDD302F0DBFC07B0DB
:101D6000BDE8F08F03B599B0FD480078002826D073
:101D7000FCA11998FEF74CFB40B10120FA4908700C
:101D8000FA490870FA490870FA490870FAA11998D6
:101D9000FEF73EFB98B1FAA11998FEF739FB70B136
:101DA0000120F9490870F9490870F1490870F149B2
:101DB0000870F748007840F01000F5490870E9A174
:101DC0001998FEF725FB70B10120F2490870F2491D
:101DD0000870F2490870E7490870F1490870E54950
:101DE0000870F0490870F0A11998FEF711FB38B19E
:101DF000F0A11998FEF70CFB10B90120E549087015
:101E0000EDA11998FEF704FBA8B3002017902EE06F
:101E100017991998405C2B2826D1179919980844CE
:101E20004078512820D117991998084480784D2876
:101E30001AD1179919980844C078542814D11799C1
:101E400019980844007953280ED117991998084415
:101E50004079542808D1179919980844007B3128F3
:101E600002D10020CB4908701798401C17901A998E
:101E700017988842CCD3D3A11998FEF7C9FA10B1AC
:101E80000120C5490870D2A11998FEF7C1FAB8B36C
:101E90000020179030E017991998405C2B2828D122
:101EA0001799199808444078512822D11799199800
:101EB0000844807849281CD1179919980844C0789B
:101EC0004F2816D11799199808440079502810D135
:101ED000179919980844407945280AD117991998F3
:101EE0000844C07A302804D10120BC490870AD49AB
:101EF00008701798401C17901A9917988842CAD3EF
:101F0000B7A11998FEF784FA10B10120B6490870FC
:101F1000B6A11998FEF77CFA002858D00020179037
:101F20003EE017991998405C432836D117991998C3
:101F300008444078532830D117991998084480787C
:101F400051282AD1179919980844C0783A2824D1E1
:101F500017991998084480792C2807D1179919984E
:101F6000084440793038A34908701DE01799199842
:101F70000844C0792C280FD1179919980844827900
:101F8000199808444079303800EB800002EB40009B
:101F900030389849087007E006E01798401C179001
:101FA0001A9917988842BCD300BF9248007800283D
:101FB00008DD904800781F2804DA01208E49087057
:101FC0006C4908708B4801788CA008F0CFFA8EA17C
:101FD0001998FEF71DFA48B18EA11998FEF718FA64
:101FE00020B101208D490870624908708CA11998B0
:101FF000FEF70EFA00284AD0002017903FE017990C
:102000001998405C2B2837D11799199808444078C3
:10201000432831D1179919980844807844282BD146
:10202000179919980844C0784E2825D117991998FE
:102030000844007953281FD117991998084440790A
:10204000472819D1179919980844784A78A105901A
:10205000FEF712FA7548FEF7EDF984490870084654
:10206000007840B1002181480078401E6F4A115429
:1020700001207F49087006E01798401C17901A99B4
:1020800017988842BBD300BF01203A49087079A154
:102090001998FEF7BDF990B30020179041E0179909
:1020A0001998405C432839D1179919980844407809
:1020B000532833D117991998084480784F282DD187
:1020C000179919980844C078432827D11799199867
:1020D000084400793A2821D1179919980844807941
:1020E00030280DD101206549087065A008F03EFA3E
:1020F00000206949087001201E49087015E015E0AC
:102100001799199808448079312807D1012063492B
:102110000870614908701749087006E01798401C5C
:1021200017901A9917988842B9D300BF5CA11998E3
:10213000FEF76EF930B15C480078012802D001202A
:102140005A4908705AA11998FEF762F9002806D07A
:102150005A480078002802D10C901790DFE01AE16D
:102160002A0000104F4B0000220000102300001036
:10217000290000100C0000102B4350494E3A00007B
:102180005245414459000000240000102500001071
:10219000500000104D0000104E00001030000010E4
:1021A00026000010270000102B514D544F50454E73
:1021B0003A0000002D3100002B514D54535441542E
:1021C0003A0000002B514D54434F4E4E3A00000050
:1021D0002B51494F50454E3A000000000D000010B1
:1021E0002B49503A000000004F0000102B43535180
:1021F00000000000110000100F0000104353512098
:102200003D202564200A00002B4347434F4E545283
:1022100044503A00636D6E62696F740010000010E4
:102220002B43444E534749503A000000583A00208F
:102230002B43444E534749503A20312C226F74614E
:102240002E696F742D7468696E672E636E2D7368C6
:10225000616E676861692E616C6979756E63732E52
:10226000636F6D222C222573220D0A0021000010BD
:10227000200000102B43534F433A00002C00001065
:102280004E65744F70656E5F5374617475735F3122
:102290003D3D310D0A0000002D0000102E00001001
:1022A0004552524F52000000340000102F00001021
:1022B0002B43534F4E4D493A20300000320000105E
:1022C00017991998405C2B2826D11799199808441A
:1022D0004078432820D117991998084480785328CA
:1022E0001AD1179919980844C0784F2814D1179912
:1022F0001998084400794E280ED117991998084466
:1023000040794D2808D10DAA0C99179842F8210060
:102310000C98401CC0B20C901798401C17901A994A
:1023200017988842CCD300200B90FE490860169085
:102330001DE0FD48FB49096808440DA90590169861
:1023400051F820101998084404900BAAF7A1059B96
:10235000FEF792F8FAA00B9908F008F9F148006826
:102360000B990844EF4908601698401C16900C9988
:1023700016988842DDD3EB480168F7A008F0F6F81C
:10238000E848006810B10120F9490870F848017860
:10239000F8A008F0EBF8FBA11998FEF739F800282F
:1023A00071D0F348007800286DD10C9017902EE082
:1023B00017991998405C2B2826D117991998084429
:1023C0004078512820D117991998084480784928D5
:1023D0001AD1179919980844C078552814D117991B
:1023E00019980844007952280ED117991998084471
:1023F0004079432808D10DAA0C99179842F821007A
:102400000C98401CC0B20C901798401C17901A9959
:1024100017988842CCD300200B90C24908601690D0
:102420006DE00DA9169851F82010199808440BAAD0
:10243000D6A10590FEF720F8C1A00B9908F096F8F8
:102440000B98632819D90020149011E00DA9169853
:1024500051F820101998084416301499415CB1487D
:10246000026814981044B04A11541498401C1490F7
:102470000B9914988842E9D338E00B9809281AD9A7
:102480000020149012E04EE00DA9169851F820108B
:102490001998084415301499415CA24802681498B0
:1024A0001044A14A11541498401C14900B9914988C
:1024B0008842E9D31AE00B98C0B10020149011E0D3
:1024C0000DA9169851F82010199808441430149941
:1024D000415C9448026814981044934A115414982B
:1024E000401C14900B9914988842E9D38D480068D9
:1024F0000B9908448B4908601698401C16900C995B
:10250000169888428DD38748016893A008F02EF86A
:102510008448006810B101209549087094480178FA
:1025200094A008F023F89FA11998FDF771FFA0A1CE
:102530001998FDF76DFFE0B3002017905AE0179946
:102540001998405C2B2852D1179919980844407863
:1025500043284CD11799199808448078532846D1BC
:10256000179919980844C0784F2840D1179919989D
:102570000844007945283AD11799199808444079B8
:10258000522834D1179919980844807952282ED1AD
:10259000179919980844807A2C2828D117991998E6
:1025A0000844407A302818D183A0199907F0DEFF3B
:1025B00000E024E082A007F0D9FF002088490870DD
:1025C000884908708848006890F8A605012803D15A
:1025D00018F0F8FF00BFFEE710E0179919980844BB
:1025E000407A312803D100208049087006E017980E
:1025F000401C17901A9917988842A0D300BF7CA15D
:102600001998FDF705FF002801F019877BA119989B
:10261000FDF7FEFE002801F0EF80002017901DE17D
:1026200017991998405C732851D117991998084443
:10263000407865284BD117991998084480787428F8
:1026400045D1179919980844C07822283FD1179985
:102650001998084400792C2839D1179919980844F9
:10266000407B2C2834D1179919980844807B222864
:102670002ED1179919980844007B3038179A199968
:102680001144C97A303901EB810100EB4100624904
:1026900008601799199808440E305F490968084482
:1026A0004078222813D1002016900BE01799199832
:1026B00008440F301699415C584A169811541698E0
:1026C000401C16905449169809688842EED3C2E01F
:1026D000179919980844807B2C2821D117991998AB
:1026E0000844C07B22281BD1179919980844C07A46
:1026F0003038642110FB01F2179919980844007BC7
:10270000303800EB800002EB400219980844407B0F
:1027100030381044404908601799199808447FE000
:1027200099E0000014000010580600202B43534F7E
:102730004E4D493A20302C25642C25730D0A00009B
:102740007265765F6C656E6774685F74656D702026
:102750003D202564200A0D004C616E5F7265765F36
:102760006C656E7468203D202564200A0D00000011
:10277000320000105265765F666C61673A2025640E
:102780000A0D00002B51495552433A002B5149552F
:1027900052433A202272656376222C302C25640D38
:1027A0000A0000002B514D54524543563A00000098
:1027B0002B43534F455252000D0A2573200D0A003A
:1027C0002B43534F45525220204E65744F70656E17
:1027D0005F5374617475735F313D3D300D0A0000C5
:1027E0002C00001027000010680000102E000010C0
:1027F0002B434D515055423A000000002F74686938
:102800006E672F736572766963652F70726F70657E
:102810007274792F7365740018000010582E002010
:102820000F30FA49096808444078222813D1002063
:1028300016900BE017991998084410301699415CCE
:10284000F34A169811541698401C1690EF491698A2
:1028500009688842EED31798401C17901A99179868
:102860008842FFF4DDAE4FF48061EA48FDF7C5FD14
:10287000E648008880B2E74A01460590E44804F043
:102880004FFEE54908604FF40061E148FDF7B5FDF2
:102890000020DE490860DF4ADF480168DFA007F05A
:1028A00065FEE2A1DB48FDF7B3FD00287DD00020E6
:1028B00017900CE1D7491798085C732849D11798ED
:1028C000401C085C6528F9D11798801C085C7428A6
:1028D000F4D11798C01C085C3128EFD11798401D1F
:1028E000085C3A2836D117980830085C7D2831D129
:1028F000002016900BE01798801D16990844C549D2
:10290000095C06AA169811541698401C1690169841
:102910000228F0D306A807F087FE8DED040B9DED8D
:10292000040B51EC100BFEF7A7F8C4490968C1F875
:102930004205C2480068D0F842050390FEF770F8DF
:10294000CDE904019DED040B53EC102BBCA007F066
:102950000DFEB9E0AF491798401D085C3A2838D100
:1029600017980930085C7D2833D1002016900BE0C1
:102970001798801D16990844A649095C06AA16985E
:1029800011541698401C169016980328F0D306A8E8
:1029900007F04AFE8DED040B9DED040B51EC100B7E
:1029A000FEF76AF8A549096800E096E0C1F842051B
:1029B000A2480068D0F842050390FEF731F8CDE94F
:1029C00004019DED040B53EC102B9DA007F0CEFDF0
:1029D0007AE090491798401D085C3A2836D117983C
:1029E0000A30085C7D2831D1002016900BE0179842
:1029F000801D169908448749095C06AA1698115447
:102A00001698401C169016980428F0D306A807F0D4
:102A10000BFE8DED040B9DED040B51EC100BFEF73E
:102A20002BF886490968C1F8420584480068D0F847
:102A300042050390FDF7F4FFCDE904019DED040B81
:102A400053EC102B7EA007F091FD3DE071491798E3
:102A5000401D085C3A2837D117980B30085C7D2858
:102A600032D1002016900BE01798801D169908446B
:102A70006849095C06AA169811541698401C1690CD
:102A800016980528F0D306A807F0CEFD8DED040BAF
:102A90009DED040B51EC100BFDF7EEFF6749096843
:102AA000C1F8420565480068D0F842050390FDF77B
:102AB000B7FFCDE904019DED040B53EC102B60A092
:102AC00007F054FD18F07EFD1798401C17905249EE
:102AD000179809688842FFF4EDAE5EA14D48FDF7F6
:102AE00097FC00287DD00020179045E149491798B0
:102AF000085C732849D11798401C085C6528F9D1F7
:102B00001798801C085C7428F4D11798C01C085CC6
:102B10003228EFD11798401D085C3A2836D1179813
:102B20000830085C7D2831D1002016900BE0179802
:102B3000801D169908443749095C06AA1698115455
:102B40001698401C169016980228F0D306A807F095
:102B50006BFD8DED040B9DED040B51EC100BFDF79F
:102B60008BFF36490968C1F8470534480068D0F83A
:102B700047050390FDF754FFCDE904019DED040BDB
:102B800053EC102B37A007F0F1FCF2E02149179825
:102B9000401D085C3A286FD117980930085C7D28E1
:102BA0006AD1002016900BE01798801D16990844F2
:102BB0001849095C06AA169811541698401C1690DC
:102BC00016980328F0D306A807F02EFD8DED040B10
:102BD0009DED040B51EC100BFDF74EFF17490968F2
:102BE00000E0CFE0C1F8470514480068D0F8470579
:102BF0000390FDF715FFCDE904019DED040B53ECA7
:102C0000102B18A007F0B2FCB3E035E0180000105C
:102C1000582E0020583600201C00001052657620E7
:102C20002564203A202573200A0D00004375727236
:102C3000656E745F736574310000000068000010F9
:102C400043757272656E745F7365745F313A2025E7
:102C50002E32660043757272656E745F73657432EE
:102C60000000000043757272656E745F7365745F77
:102C7000323A20252E326600FD491798401D085C27
:102C80003A2837D117980A30085C7D2832D10020C5
:102C900016900BE01798801D16990844F449095CBA
:102CA00006AA169811541698401C169016980428D7
:102CB000F0D306A807F0B8FC8DED040B9DED040BD6
:102CC00051EC100BFDF7D8FEEA490968C1F8470539
:102CD000E8480068D0F847050390FDF7A1FECDE96C
:102CE00004019DED040B53EC102BAFF2880007F0AC
:102CF0003DFC3EE0DE491798401D085C3A2838D17B
:102D000017980B30085C7D2833D1002016900BE01B
:102D10001798801D16990844D549095C06AA16988B
:102D200011541698401C169016980528F0D306A842
:102D300007F07AFC8DED040B9DED040B51EC100BAC
:102D4000FDF79AFECB490968C1F84705C9480068F4
:102D5000D0F847050390FDF763FECDE904019DED32
:102D6000040B53EC102BAFF2041007F0FFFB18F02C
:102D700029FC1798401C1790BF491798096888428A
:102D8000FFF4B4AEBDA1BA48FDF742FB00287DD0E8
:102D9000002017900CE1B6491798085C732849D1B8
:102DA0001798401C085C652844D11798801C085C63
:102DB00074283FD11798C01C085C33283AD1179863
:102DC000401D085C3A2836D117980830085C7D28E9
:102DD00031D1002016900BE01798801D16990844F9
:102DE000A349095C06AA169811541698401C16901F
:102DF00016980228F0D306A807F016FC8DED040BF8
:102E00009DED040B51EC100BFDF736FE9949096856
:102E1000C1F84C0597480068D0F84C050390FDF7C1
:102E2000FFFDCDE904019DED040B53EC102B97A0A1
:102E300007F09CFBB9E08E491798401D085C3A28C2
:102E400038D117980930085C7D2833D100201690BE
:102E50000BE01798801D169908448549095C06AA5D
:102E6000169811541698401C169016980328F0D303
:102E700006A807F0D9FB8DED040B9DED040B51EC7A
:102E8000100BFDF7F9FD7B49096800E096E0C1F8F9
:102E90004C0578480068D0F84C050390FDF7C0FD5C
:102EA000CDE904019DED040B53EC102B77A007F046
:102EB0005DFB7AE06E491798401D085C3A2836D1D0
:102EC00017980A30085C7D2831D1002016900BE05D
:102ED0001798801D169908446549095C06AA16983A
:102EE00011541698401C169016980428F0D306A882
:102EF00007F09AFB8DED040B9DED040B51EC100BCC
:102F0000FDF7BAFD5B490968C1F84C0559480068EE
:102F1000D0F84C050390FDF783FDCDE904019DED4C
:102F2000040B53EC102B59A007F020FB3DE0504957
:102F30001798401D085C3A2837D117980B30085C69
:102F40007D2832D1002016900BE01798801D16992D
:102F500008444749095C06AA169811541698401C63
:102F6000169016980528F0D306A807F05DFB8DEDA6
:102F7000040B9DED040B51EC100BFDF77DFD3D495D
:102F80000968C1F84C053B480068D0F84C0503902F
:102F9000FDF746FDCDE904019DED040B53EC102B2C
:102FA0003AA007F0E3FA18F00DFB1798401C1790B1
:102FB0003149179809688842FFF4EDAE38A12C48D2
:102FC000FDF726FA002852D00020179038E1284952
:102FD0001798085C732849D11798401C085C65282D
:102FE00044D11798801C085C74283FD11798C01CE6
:102FF000085C34283AD11798401D085C3A2861D102
:1030000017980830085C7D285CD1002016900BE0F2
:103010001798801D169908441549095C06AA169848
:1030200011541698401C169016980228F0D306A842
:1030300007F0FAFA8DED040B9DED040B51EC100B2B
:10304000FDF71AFD0B490968C1F8510509480068E8
:10305000D0F851050390FDF7E3FCCDE904019DEDA7
:10306000040B53EC102B12A007F080FAE5E0EDE022
:1030700058360020680000101C0000104375727262
:10308000656E745F7365743300000000437572727F
:10309000656E745F7365745F333A20252E32660067
:1030A00043757272656E745F73657434000000005E
:1030B00043757272656E745F7365745F343A202570
:1030C0002E326600FE491798401D085C3A2837D119
:1030D00017980930085C7D2832D1002016900BE04B
:1030E0001798801D16990844F549095C06AA169898
:1030F00011541698401C169016980328F0D306A871
:1031000007F092FA8DED040B9DED040B51EC100BC2
:10311000FDF7B2FCEB490968C1F85105E9480068C0
:10312000D0F851050390FDF77BFCCDE904019DED3E
:10313000040B53EC102BAFF2880007F017FA7CE079
:10314000DF491798401D085C3A2837D117980A3094
:10315000085C7D2832D1002016900BE01798801D66
:1031600016990844D649095C06AA1698115416986F
:10317000401C169016980428F0D306A807F054FABD
:103180008DED040B9DED040B51EC100BFDF774FC61
:10319000CC490968C1F85105CA480068D0F8510502
:1031A0000390FDF73DFCCDE904019DED040B53ECCC
:1031B000102BAFF2041007F0D9F93EE0C049179880
:1031C000401D085C3A2838D117980B30085C7D28E0
:1031D00033D1002016900BE01798801D16990844F3
:1031E000B749095C06AA169811541698401C169007
:1031F00016980528F0D306A807F016FA8DED040BF3
:103200009DED040B51EC100BFDF736FCAD49096840
:10321000C1F85105AB480068D0F851050390FDF79F
:10322000FFFBCDE904019DED040B53EC102BAFF235
:10323000801007F09BF918F0C5F91798401C1790FB
:10324000A149179809688842FFF4C1AE9FA19C4824
:10325000FDF7DEF800287DD0002017900CE198499A
:103260001798085C6C2849D11798401C085C752891
:1032700044D11798801C085C65283FD11798C01C62
:10328000085C31283AD11798401D085C3A2836D19D
:1032900017980830085C7D2831D1002016900BE08B
:1032A0001798801D169908448549095C06AA169846
:1032B00011541698401C169016980228F0D306A8B0
:1032C00007F0B2F98DED040B9DED040B51EC100BE2
:1032D000FDF7D2FB7B490968C1F8560579480068BB
:1032E000D0F856050390FDF79BFBCDE904019DED59
:1032F000040B53EC102B7AA007F038F9B9E07049B1
:103300001798401D085C3A2838D117980930085C96
:103310007D2833D1002016900BE01798801D169958
:1033200008446749095C06AA169811541698401C6F
:10333000169016980328F0D306A807F075F98DEDBE
:10334000040B9DED040B51EC100BFDF795FB5D4953
:10335000096800E097E0C1F856055A480068D0F8BF
:1033600056050390FDF75CFBCDE904019DED040BD0
:1033700053EC102B5AA007F0F9F87AE0504917984F
:10338000401D085C3A2836D117980A30085C7D2821
:1033900031D1002016900BE01798801D1699084433
:1033A0004749095C06AA169811541698401C1690B5
:1033B00016980428F0D306A807F036F98DED040B13
:1033C0009DED040B51EC100BFDF756FB3D490968D0
:1033D000C1F856053B480068D0F856050390FDF744
:1033E0001FFBCDE904019DED040B53EC102B3CA019
:1033F00007F0BCF83DE032491798401D085C3A28B8
:1034000037D117980B30085C7D2832D100201690F8
:103410000BE01798801D169908442949095C06AAF3
:10342000169811541698401C169016980528F0D33B
:1034300006A807F0F9F88DED040B9DED040B51EC97
:10344000100BFDF719FB1F490968C1F856051D4807
:103450000068D0F856050390FDF7E2FACDE90401C3
:103460009DED040B53EC102B1DA007F07FF818F016
:10347000A9F81798401C17901349179809688842B3
:10348000FFF4EDAEFDE31CA10D48FCF7C1FFC8B38E
:10349000002017905DE00A491798085C4E2855D126
:1034A0001798401C085C542850D11798801C085C61
:1034B00050284BD11798C01C085C5F2846D122E0E9
:1034C00058360020680000101C00001052656C6126
:1034D00078315F5365745F56616C7565310000002B
:1034E00052656C6178315F5365745F56616C7565C8
:1034F0003A20252E326600004E54505F537461729C
:10350000740000002BE017980A30085C3A281DD19F
:1035100017980C30085C7D2818D117980B30085C80
:10352000312805D10120FE49096881F8050504E02C
:103530000020FB49096881F80505F948006890F802
:10354000050501460590F7A007F010F81798401CF4
:103550001790F8491798096888429CD392E7F6A11A
:10356000F948FCF755FFC0B112AB13AAF749F6486A
:10357000FCF782FFEA4912980968C1F806050020A5
:10358000129018F01FF8E6480068D0F806050146CA
:103590000590EFA006F0EAFF74E7F1A1EA48FCF716
:1035A00037FFC8B3002017903DE0E7491798085C43
:1035B000652835D11798401C085C6E2830D11798C3
:1035C000801C085C61282BD11798C01C085C6228FD
:1035D00026D11798C01D085C3A2821D117980930C8
:1035E000085C7D281CD117980830085C312805D16B
:1035F0000120CB49096881F81A0504E00020C84978
:10360000096881F81A0517F0DDFFC548006890F8D1
:103610001A050146059000E00BE0D5A006F0A6FFD4
:103620001798401C1790C349179809688842BCD363
:1036300028E7D4A1C448FCF7EBFEC8B300201790DC
:103640003DE0C1491798085C652835D11798401CA2
:10365000085C6E2830D11798801C085C61282BD13B
:103660001798C01C085C622826D11798C01D085CFA
:103670003A2821D117980930085C7D281CD1179869
:103680000830085C312805D10120A549096881F876
:10369000270504E00020A249096881F8270517F0F2
:1036A00091FF9F48006890F827050146059000E0CB
:1036B0000BE0B8A006F05AFF1798401C17909D49E0
:1036C000179809688842BCD3DCE6B7A19E48FCF78E
:1036D0009FFEE8B3002017903DE09B491798085CD7
:1036E000652833D11798401C085C6E282ED1179896
:1036F000801C085C612829D11798C01C085C6228CE
:1037000024D11798C01D085C3A281FD1179809309A
:10371000085C7D281AD117980830085C312805D13B
:1037200001207F49096881F8340504E000207C49C4
:10373000096881F8340517F045FF7948006890F86A
:103740003405014605909CA006F010FF179800E094
:1037500007E0401C17907749179809688842BCD346
:1037600090E69AA17848FCF753FE0028ACD00020E0
:1037700017903BE074491798085C652833D1179877
:10378000401C085C6E282ED11798801C085C6128AC
:1037900029D11798C01C085C622824D11798C01D35
:1037A000085C3A281FD117980930085C7D281AD187
:1037B00017980830085C312805D10120584909685C
:1037C00081F8410504E000205549096881F8410568
:1037D00017F0F8FE5248006890F841050146059040
:1037E0007EA006F0C3FE1798401C17905149179809
:1037F00009688842BED345E67DA11998FCF708FE0A
:10380000002877D00020179089E017991998405C1C
:1038100022283ED117991998084440782C287BD14A
:10382000179919980844807A2C2833D11799199838
:103830000844C07A22282DD1179919980844407A53
:103840003038179A19991144097A303901EB8101FE
:1038500000EB4100694908601799199808440C3039
:1038600066490968405C222856D1002016900BE07A
:103870001799199808440C301699415C604A1698BB
:1038800011541698401C16905C4916980968884295
:10389000EED341E0179919980844C07A2C283BD1FF
:1038A000179919980844007B222835D1179919983F
:1038B0000844007A3038642110FB01F217991998F6
:1038C0000844407A303800EB800002EB400219983F
:1038D0000844807A3038104448490860179919988C
:1038E00008440D3045490968405C222814D1002065
:1038F00016900CE076E21799199808440D30169945
:10390000415C3F4A169811541698401C16903B494A
:10391000169809688842EED31798401C179071E0FA
:10392000680000104E54505F53746172743A202541
:10393000640D0A001C0000107265666C6173685F9C
:1039400074696D6500000000583600200C170208ED
:1039500074696D657374616D703A2025640D0A0099
:103960004368616E6E656C315F656E61626C6500A7
:103970006368616E6E656C315F656E3A2025640D1B
:103980000A0000004368616E6E656C325F656E61AF
:10399000626C65006368616E6E656C325F656E3A7D
:1039A0002025640D0A0000004368616E6E656C336B
:1039B0005F656E61626C65006368616E6E656C3335
:1039C0005F656E3A2025640D0A0000004368616E51
:1039D0006E656C345F656E61626C65006368616E14
:1039E0006E656C345F656E3A2025640D0A00000038
:1039F0002F6578742F6E74702F000000180000106F
:103A0000582E00201A9917988842FFF4FEAE4FF402
:103A10008061F948FCF7F1FCF848008880B2F64A6A
:103A200001460590F64803F07BFDF64908604FF427
:103A30000061F348FCF7E1FC0020F0490860EE4A21
:103A4000F0480168F0A006F091FD0020F3490860FD
:103A5000F3490860F3490860142106A8FCF7CDFC7F
:103A60000020179000E1E4491798085C642843D1CE
:103A70001798401C085C65283ED11798801C085C8C
:103A8000762839D11798C01C085C692834D117985A
:103A900016902CE0D8491698085C2C2824D116984A
:103AA000401C085C22281FD1002015900BE01798BD
:103AB000103015990844D049095C06AA159811548C
:103AC0001598401C1590DDE916100F30081A401E9D
:103AD00015998842EBD806A8FCF70DFED14908607D
:103AE000142106A8FCF789FC1698401C1690C549BD
:103AF000169809688842CDD3BF491798085C732887
:103B000057D11798401C085C652852D11798801C23
:103B1000085C72284DD11798C01C085C762848D1E3
:103B20001798001D085C652843D11798401D085C54
:103B300072283ED11798801D085C532839D11798F8
:103B4000C01D085C652834D1179816902CE0AA494E
:103B50001698085C2C2824D11698401C085C222852
:103B60001FD1002015900BE01798103015990844CC
:103B7000A149095C06AA159811541598401C159086
:103B8000DDE916100F30081A001F15998842EBD88E
:103B900006A8FCF7B0FDA1490860142106A8FCF7AF
:103BA0002CFC1698401C1690964916980968884275
:103BB000CDD391491798085C732852D11798401CAF
:103BC000085C65284DD11798801C085C722848D184
:103BD0001798C01C085C762843D11798001D085C14
:103BE00065283ED11798401D085C722839D1179876
:103BF000801D085C522834D11798C01D085C6528C8
:103C00002FD11798169027E07B491698085C7D28DD
:103C10001FD1002015900BE017981030159908441B
:103C20007549095C06AA159811541598401C159001
:103C3000DDE916100F30081A001F15998842EBD8DD
:103C400006A8FCF758FD76490860142106A8FCF781
:103C5000D4FB1698401C16906A4916980968884249
:103C6000D2D31798401C1790664917980968884264
:103C7000FFF4F9AE6A480368684802686948016859
:103C800000E0AEE068A006F071FC6648FCF758FF63
:103C90002C22014605907348FCF788FB7148FCF71D
:103CA00027FB0146059070A006F060FC5B48FCF71E
:103CB00047FF2C22014605906A48FCF777FB6948CC
:103CC00080680830674988600846FCF711FB0146A8
:103CD000059069A006F04AFC5148FCF731FF2C2200
:103CE000014605905F48FCF761FB5E48806808303C
:103CF0005C4988600846FCF7FBFA0146059064A021
:103D000006F034FC4548006800286AD04348006843
:103D1000444908604148FCF713FF2C2201460590F6
:103D20005048FCF743FB4F48007A08305E49087062
:103D30004C48007948704B48007B88704948007DAA
:103D400064385A49C8704748007C401C4870454850
:103D5000007B88704348007E087000225249544816
:103D600001F05AFF00225149514801F0D3FE1421BD
:103D70004D48FCF742FB4D480021016000224A49B2
:103D80004B4801F011FD00224849494801F0E6FC8A
:103D90004648807805904548407804904348C0786C
:103DA0000390014643A0DDE9042306F0DFFB3E4813
:103DB00080683D494968CDE900103B48807805900E
:103DC000394840780490384800780390014643A071
:103DD000DDE9042306F0CAFB01204949087049497E
:103DE00008702CE348A11998FCF712FB0028F8D0C2
:103DF000002017901DE10000583600201800001028
:103E0000582E00201C0000104E5450205265762081
:103E10002564203A202573200A0D00005800001068
:103E20005C0000105400001064657669636553659A
:103E30006E6454696D653A25642C7365727665729B
:103E400053656E6454696D653A25642C73657276AA
:103E500065725265637654696D653A2564200D0A72
:103E600000000000806600205379735F74696D65FF
:103E7000733A2573200D0A007365727665725F735D
:103E8000656E645F74696D653A2573200D0A0000E4
:103E90007365727665725F7265765F74696D653A97
:103EA0002573200D0A0000006C66002047000010FA
:103EB00020010020546F64617920697320256420FB
:103EC000796561722C202564206D6F7574682C20D3
:103ED000256420646174650A0D0000006E6F772010
:103EE0006973202564203A202564203A2025642027
:103EF0003A202564203A202564200A0D00000000A5
:103F0000300000100C0000102F6F74612F64657674
:103F10006963652F757067726164652F000000002A
:103F200017991998405C22283ED11799199808448E
:103F300040782C287AD1179919980844807A2C282F
:103F400033D1179919980844C07A22282DD117998E
:103F500019980844407A3038179A19991144097A07
:103F6000303901EB810100EB4100F84908601799F5
:103F7000199808440C30F5490968405C222855D14D
:103F8000002016900BE01799199808440C301699E8
:103F9000415CEF4A169811541698401C1690EB4954
:103FA000169809688842EED340E01799199808449A
:103FB000C07A2C283AD1179919980844007B2228F6
:103FC00034D1179919980844007A3038642110FBCD
:103FD00001F2179919980844407A303800EB8000B4
:103FE00002EB400219980844807A30381044D749CF
:103FF00008601799199808440D30D4490968405C45
:10400000222813D1002016900BE017991998084424
:104010000D301699415CCE4A169811541698401CE2
:104020001690CA49169809688842EED31798401C22
:1040300017901A9917988842FFF472AF4FF4806175
:10404000C448FCF7DAF9C148008880B2C14A014689
:104050000590BF4803F064FABF4908604FF400615F
:10406000BB48FCF7CAF90020B8490860B94ABA4809
:104070000168AFF2682006F079FA00201790D8E1C5
:10408000B4491798085C732852D11798401C085CF3
:1040900069284DD11798801C085C7A2848D1179858
:1040A000C01C085C652843D1179816903AE0A949CE
:1040B0001698085C2C2832D1002015900BE0179838
:1040C000801D15990844A349095C06AA1598115446
:1040D0001598401C1590DDE91610401D081A401E69
:1040E00015998842EBD806A8FCF7F8FA9B490968AD
:1040F000C1F8D204142106A8FCF77FF9974800689C
:10410000D0F8D2040146059095A006F02FFA0020C1
:104110009249096881F8AF0517F054FA07E016983C
:10412000401C16908C49169809688842BFD300BF7E
:1041300088491798085C73284DD11798401C085C73
:10414000692848D11798801C085C672843D11798C4
:10415000C01C085C6E283ED11798001D085C222800
:1041600039D11799169130E07A491698085C2228BF
:1041700028D11698401C085C2C2823D100201590CB
:104180000EE01798C01D1599084472490A5C7348DF
:10419000006800F2D640159942541598401C1590BD
:1041A000DDE91610801D081A401E15998842E8D8CE
:1041B0006A48016801F2D6416EA006F0D7F917F0FF
:1041C00001FA07E01698401C169063491698096892
:1041D0008842C9D300BF5F491798085C76287CD114
:1041E0001798401C085C652877D11798801C085CDC
:1041F000722872D11798C01C085C73286DD117986B
:1042000016907CE053491698085C222874D11698C1
:10421000401C085C2C286FD1142106A8FCF7EDF88F
:10422000002015900BE017980A3015990844494969
:10423000095C06AA159811541598401C1590DDE9E3
:1042400016100930081A401E15998842EBD806A8A6
:1042500006F0EAF98DED000B9FED4B0B53EC102BA4
:104260009DED000B51EC100BFCF7F9FA9FED460B9E
:1042700053EC102BCDE902019DED020B51EC100B1C
:10428000FCF75FFBCDE904019DED040B51EC100B35
:10429000FCF7F2FB31490968C1F8FA04142106A8B9
:1042A000FCF7ABF82D480068D0F8FA040390FCF74F
:1042B000B7FBCDE904019DED040B53EC102B34A0AA
:1042C00006F054F925480068D0F8FA0400EE100A08
:1042D00022480068D0F8F60401E017E00CE000EE98
:1042E000900AB4EEE00AF1EE10FA02DD0120304946
:1042F000087017F067F908E01698401C16901649E8
:10430000169809688842FFF47DAF00BF28480078FE
:10431000D8B110491798085C752816D11798401C19
:10432000085C722811D11798801C085C6C287DD11C
:104330001798C01C085C222878D11798001D085CCB
:104340003A2873D1179816906AE06FE018000010B1
:10435000582E0020583600201C0000106800001065
:104360004669726D776172655F73697A653A202577
:10437000640D0A004669726D776172655F736967E3
:104380006E3A2025730D0A0000000000000059401D
:104390004669726D776172655F56657273696F6E9B
:1043A0005F6E65773A20252E31660D0A0000000009
:1043B0004B00001028491698085C22282DD1169829
:1043C000401C085C2C2828D14FF4806123480068E9
:1043D000D030FCF712F8002015900DE01798801DE2
:1043E000159908441C490A5C1C480068D03015998E
:1043F00042541598401C1590DDE91610401D081A0E
:10440000401E15998842E9D814480168D03114A09B
:1044100006F0ACF817F0D6F807E01698401C169096
:104420001349169809688842C4D300BF1798401CE6
:1044300017900F49179809688842FFF421AE0DA123
:104440001998FBF7E5FF28B10DA006F08FF80020C2
:10445000114908701BB000BD5836002068000010DC
:1044600055726C3A2025730D0A20656E64000000B9
:104470001C0000102B434D51444953434F4E3A000A
:104480004D51545420436C69656E7420636C6F7396
:10449000656421200A000000330000107047704757
:1044A000704770B504460025002620680068C0F3F8
:1044B000400520684068C0F3401695B38EB3206C69
:1044C00000F0100018B9206C40F4007020642068DF
:1044D000806800F04050E8B9207ED8B92068C06AF2
:1044E00000F4700020B12068806800F4806088B912
:1044F0002068406820F0200021684860206C20F48B
:1045000080702064206C00F4805018B9206C40F05A
:10451000010020642046FFF7C2FF6FF012002168FF
:10452000086020680068C0F3800520684068C0F318
:10453000C016E5B3DEB3206C00F0100018B9206C93
:1045400040F4005020642068806800F4401038BBBC
:104550002068806B00F4401020B12068806800F46F
:104560008060E8B92068406800F48060C0B92068C5
:10457000806800F0405098B9207E88B92068406873
:1045800020F0800021684860206C20F48050206476
:10459000206C00F4807018B9206C40F00100206499
:1045A0002046FFF77BFF6FF00C0021680860206851
:1045B000006800F0010520684068C0F3801685B1EE
:1045C0007EB12068006800F0010050B1206C40F41A
:1045D00080302064204600F01EF86FF00100216852
:1045E000086020680068C0F3401520684068C0F388
:1045F00080667DB176B1606C40F0020060646FF05F
:104600002000216808602046FFF74AFF6FF0200075
:104610002168086070BD7047014691F83500022896
:1046200003D08020486501207047052081F83500BF
:104630000868006820F001000A6810600020F3E7B5
:1046400070B5044600F0E4F906462546681C10B132
:1046500004480078054400BF00F0DAF9801BA84246
:10466000FAD370BD880500102DE9F04104460E46CE
:104670000127002500BF2548007E012802D1022025
:10468000BDE8F08101202149087600BF4CF250308E
:10469000FDF7FCFA0746002F31D1401E306020683C
:1046A00001280FD1207C6168FDF728FA4CF25030C8
:1046B000FDF7ECFA07461648006820F0040014499C
:1046C00008601AE0A56812E0217C2846FDF7ACF9E5
:1046D0004CF25030FDF7DAFA07460D48006820F03A
:1046E000FA000B4908600FB1356005E06D1CD4E994
:1046F00002100844A842E7D800BFFDF7C3F900BF85
:1047000000200249087600BF3846B9E7280A0010A1
:10471000103C02400348006840F000400149086036
:1047200000207047103C02402DE9F04106460F463C
:1047300014461D464FF0010800BF1F48007E0128A7
:1047400002D10220BDE8F08101201B49087600BF9C
:104750004CF25030FDF79AFA8046B8F1000F23D1A1
:1047600026B9E1B23846FDF7E1F912E0012E04D195
:10477000A1B23846FDF70AFA0BE0022E04D1214619
:104780003846FDF717FA04E022462B463846FDF777
:10479000DFF94CF25030FDF779FA8046074800689F
:1047A00020F001000549086000BF0020024908769A
:1047B00000BF4046C6E70000280A0010103C024037
:1047C00000200949096801F0004159B10749064A2A
:1047D0000C3A1160064911600349096801F0004173
:1047E00001B1012070470000103C024023016745E1
:1047F000AB89EFCDF8B502460B460025002400201A
:104800000021DCE0012606FA01F51E6806EA05042F
:10481000AC4273D15E68012E08D05E68022E05D0CE
:104820005E68112E02D05E68122E13D190684F0080
:104830000326BE40B0434F00DE68BE403043906068
:10484000506801268E40B0431E79C6F300168E4094
:1048500030435060D0684F000326BE40B0434F0045
:104860009E68BE403043D0605E68022E02D05E6813
:10487000122E13D1CF0802F1200656F827004E075A
:10488000F70E0F26BE40B0434F07FF0E1E69BE4015
:104890003043CF0802F1200646F8270010684F0089
:1048A0000326BE40B0431E7906F003064F00BE400B
:1048B000304310605E6806F08056B6F1805F7DD1AF
:1048C00000BF00260096404E366846F480463E4FB4
:1048D0003E603E46366806F48046009600BF00BF44
:1048E0003A4E8F0856F827008E07370F0F26BE4026
:1048F000B043374EB24202D1002624E05EE0354E8E
:10490000B24201D101261EE0334EB24201D102264D
:1049100019E0324EB24201D1032614E0304EB242C9
:1049200001D104260FE02F4EB24201D105260AE044
:104930002D4EB24201D1062605E02C4EB24201D1E5
:10494000072600E008268F073F0FBE4030431F4E6A
:104950008F0846F82700264E3068A0435E6806F4AC
:104960008036B6F5803F00D12043214E3060361DA1
:104970003068A0435E6806F40036B6F5003F00D10B
:1049800020431B4E361D3060361D3068A0435E68E4
:1049900006F48016B6F5801F00D12043144E083669
:1049A0003060361D3068A0435E6806F40016B6F528
:1049B000001F00D120430E4E0C363060491C1029D8
:1049C000FFF420AFF8BD0000443802400838014031
:1049D000000002400004024000080240000C0240B7
:1049E000001002400014024000180240001C024067
:1049F000003C0140024613690B400BB1012000E06E
:104A0000002070470AB1816101E00B0483617047A7
:104A100001480068704700008005001070B504462A
:104A20000CB9012070BD94F83D0028B9002084F82D
:104A30003C00204600F0DAF8242084F83D0020688D
:104A4000006820F00100216808602068006840F4D8
:104A50000040216808602068006820F40040216858
:104A6000086000F087FB05465C496068884206D80C
:104A70005B48854201D2012007E0002005E059484B
:104A8000854201D2012000E00020012800D1C9E7C1
:104A90005548B5FBF0F62068406820F03F003043F1
:104AA000216848604D496068884201D8701C07E061
:104AB0004FF4967070434FF47A71B0FBF1F0401CE4
:104AC0002168096A21F03F010843216808624349CF
:104AD0006068884214D8681E61684900B0FBF1F034
:104AE000401CC0F30B00042801D204203DE0681EE6
:104AF00061684900B0FBF1F0401CC0F30B0034E0EA
:104B0000A06838B9681E616801EB4101B0FBF1F0A3
:104B1000401C0AE0681E616801EBC10202EB011152
:104B2000B0FBF1F0401C40F48040C0F30B0008B92A
:104B300001201AE0A06848B9681E616801EB4101D4
:104B4000B0FBF1F0401CC0F30B000CE0681E616884
:104B500001EBC10202EB0111B0FBF1F0401CC0F30C
:104B60000B0040F4804040F400402168C9694CF6D5
:104B7000FF72914308432168C861D4E907010843E3
:104B80002168096821F0C001084321680860D4E960
:104B9000031008432168896848F2FF3291430843B3
:104BA00021688860D4E9050108432168C96821F0BB
:104BB000FF0108432168C8602068006840F00100D8
:104BC0002168086000202064202084F83D00002037
:104BD000206384F83E0000BF24E70000A0860100A7
:104BE00080841E0000093D0040420F0010B586B0D1
:104BF0000446142101A8FBF700FC1B4920688842E9
:104C000030D100BF002000901848006840F002003A
:104C1000164908600846006800F00200009000BFD6
:104C200000BF4FF4407001901220029001200390C9
:104C3000032004900420059001A90D48FFF7DAFD38
:104C400000BF0020009009481030006840F40010B8
:104C50000649103108600846006800F40010009012
:104C600000BF00BF06B010BD005400403038024005
:104C700000040240034800680349097808440149D8
:104C800008607047800500108805001010B50D48B9
:104C9000006840F400700B4908600846006840F462
:104CA000806008600846006840F480700860032057
:104CB00000F0B4F8002000F007F800F02BF8002016
:104CC00010BD0000003C024070B504460E4800785C
:104CD0004FF47A71B1FBF0F00C490968B1FBF0F5C3
:104CE000284601F07DFB08B1012070BD102C07D2D1
:104CF00000222146501E00F053F80548046001E0F0
:104D00000120F2E70020F0E78805001024000020D1
:104D10008405001008B500BF002000900E48006810
:104D200040F480400C4908600846006800F4804068
:104D3000009000BF00BF00BF00200090081F006867
:104D400040F08050091F08600846006800F080505D
:104D5000009000BF00BF08BD4438024010B50146B6
:104D60000846002807DB00F01F0301229A40034B8E
:104D7000440943F8242000BF10BD000080E200E099
:104D800001460846002809DB00F01F0301229A4073
:104D900043099B0003F1E023C3F8002100BF7047E3
:104DA0002DE9F05F80460D461646002705F01AFCF7
:104DB000074639462A46334601F00700C0F1070A84
:104DC000BAF1040F02D94FF0040A01E0C0F1070A5A
:104DD000D14600F1040ABAF1070F02D24FF0000ADF
:104DE00001E0A0F1030AD4464FF0010A0AFA09FAD9
:104DF000AAF1010A0AEA020A0AFA0CFA4FF0010BB8
:104E00000BFA0CFBABF1010B0BEA030B4AEA0B04A8
:104E10002146404605F0EEFBBDE8F09F00BF00F0E4
:104E20000702064B19684FF6FF031940044B0B436A
:104E300043EA0221014B196000BF70470CED00E00E
:104E40000000FA05F8B5044600250026207800F099
:104E5000010020B9207800F0040004282FD10020A0
:104E60005B498866FFF7D4FD054606E0FFF7D0FDF5
:104E7000401B022801D90320F8BD56480068C0F342
:104E8000C0600028F2D160688101207A41EA007098
:104E900050498431086001204D498866FFF7B8FD0C
:104EA000054606E0FFF7B4FD401B022801D90320A8
:104EB000E2E748480068C0F3C0600028F2D02078DC
:104EC00000F0020002287DD100BF00200090414880
:104ED0004030006840F080503E494031086008464C
:104EE000006800F08050009000BF00BF3A480068A2
:104EF00040F4807038490860FFF78AFD054606E0F7
:104F0000FFF786FD401B022801D90320B4E7324891
:104F1000006800F480700028F2D02E4870300068DD
:104F200000F440764EB3A08900F44070B04224D023
:104F300028487030006820F4407601202749086036
:104F400000200860234870300660006800F001000F
:104F500098B1FFF75DFD054608E0FFF759FD401BDE
:104F600041F28831884201D9032085E71948703021
:104F70000068C0F340000028EFD000BFA08900F413
:104F80004070B0F5407F0CD112480830006820F422
:104F9000F810134AE168114008430E4908310860CF
:104FA00007E00C480830006820F4F810094908317F
:104FB0000860084870300068A189C1F30B010843FC
:104FC000044900E002E07031086000BF002053E7B0
:104FD000000047420038024000700040400E474247
:104FE000FFFCFF0F70B504460D460CB9012070BDE3
:104FF0005848006800F00F00A84209D255490D70CA
:105000000846006800F00F00A84201D00120EEE73A
:10501000207800F0020002281DD1207800F0040062
:10502000042805D14C48006840F4E0504A49086023
:10503000207800F00800082805D14748006840F4AF
:105040006040454908604448006820F0F000A168CD
:10505000084341490860207800F00100A8B3606867
:10506000012807D13C4808380068C0F34040B8B96F
:105070000120BCE76068022802D06068032807D1DD
:10508000354808380068C0F3406048B90120AEE7F1
:10509000314808380068C0F3400008B90120A6E78D
:1050A0002D48006820F00300616808432A49086021
:1050B000FFF7AEFC064609E0FFF7AAFC801B41F2B1
:1050C0008831884202D9032091E707E0224800682E
:1050D00000F00C006168B0EB810FEDD11D48006855
:1050E00000F00F00A84209D91A490D70084600685F
:1050F00000F00F00A84201D0012078E7207800F0EE
:105100000400042807D11448006820F4E050E16846
:10511000084311490860207800F00800082808D1E9
:105120000D48006820F46040216940EAC1000A4946
:10513000086000F03FF808490968C1F30311074A05
:10514000515CC8400649086006480068FFF7BCFD8E
:1051500000204CE7003C024008380240A4E6010869
:1051600024000020840500100148006870470000FA
:105170002400002000B5FFF7F7FF04490968C1F3D8
:105180008221034A515CC84000BD0000083802403B
:10519000B4E6010800B5FFF7E7FF04490968C1F369
:1051A0004231034A515CC84000BD0000083802404B
:1051B000B4E601082DE9F047002400250026A146A9
:1051C0002548006800F00C0020B1042805D008280C
:1051D0003AD105E0DFF8849039E0DFF8849036E0DA
:1051E0001D48001F006800F03F041B48001F0068B6
:1051F00000F4800078B11A481749091F0968C1F303
:105200008811A0FB01700146224600233846FAF7B8
:10521000D7FF05460EE011480F49091F0968C1F381
:105220008811A0FB01700146224600233846FAF798
:10523000C7FF05460848001F0068C0F30140401C36
:105240004600B5FBF6F902E0DFF8109000BF00BFA2
:105250004846BDE8F0870000083802400024F4000A
:10526000001BB700F8B504460CB90120F8BD207842
:1052700000F00100002874D0F948006800F00C002C
:1052800004280DD0F648006800F00C00082813D15F
:10529000F348001F006800F48000B0F5800F0BD1C8
:1052A000EF4808380068C0F34040002859D06068D3
:1052B000002856D10120D9E700BF6068B0F5803FD3
:1052C00008D1E7480838006840F48030E4490839DC
:1052D00008601EE06068B0F5A02F0DD1E0480838E6
:1052E000006840F48020DE490839086008460068FC
:1052F00040F4803008600CE0D9480838006820F499
:105300008030D749083908600846006820F48020BA
:10531000086000BF606890B1FFF77AFB054606E0C1
:10532000FFF776FB401B642801D903209EE7CC4899
:1053300008380068C0F340400028F1D011E0FFF7C2
:1053400067FB054606E0FFF763FB401B642801D9B5
:1053500003208BE7C24808380068C0F340400028AB
:10536000F1D1207800F0020002285FD1BC4800682B
:1053700000F00C0058B1BA48006800F00C00082892
:105380001CD1B748001F006800F48000B0B9B448D1
:1053900008380068C0F3400020B1E068012801D05F
:1053A000012063E7AE480838006820F0F800216962
:1053B00040EAC100AA490839086037E0E06800B354
:1053C0000120A8490860FFF723FB054606E0FFF728
:1053D0001FFB401B022801D9032047E7A0480838DB
:1053E0000068C0F340000028F1D09D4808380068EC
:1053F00020F0F800216940EAC100994908390860A5
:1054000014E0002097490860FFF702FB054606E01C
:10541000FFF7FEFA401B022801D9032026E7904837
:1054200008380068C0F340000028F1D1207800F06F
:10543000080008282CD16069A8B101208A490860B9
:10544000FFF7E6FA054606E0FFF7E2FA401B0228FE
:1054500001D903200AE782486C300068C0F340009D
:105460000028F1D014E000207F490860FFF7D0FA4F
:10547000054606E0FFF7CCFA401B022801D90320BD
:10548000F4E677486C300068C0F340000028F1D1A2
:10549000207800F00400042870D1002770483830CC
:1054A000006800F0805090B900BF002000906C4868
:1054B0003830006840F0805069493831086008464B
:1054C000006800F08050009000BF00BF01276748CF
:1054D000006800F48070B0B96448006840F48070DF
:1054E00062490860FFF794FA054606E0FFF790FA74
:1054F000401B022801D90320B8E65C48006800F48C
:1055000080700028F2D000BFA068012808D154485C
:105510006830006840F001005149683108601DE0C2
:10552000A06805280DD14E486830006840F004009E
:105530004B49683108600846006840F00100086087
:105540000CE047486830006820F0010044496831A9
:1055500008600846006820F00400086000BFA068EA
:10556000A8B1FFF755FA054609E0FFF751FA401BCD
:1055700041F28831884202D9032077E626E0384894
:1055800068300068C0F340000028EED013E0FFF759
:105590003FFA054608E0FFF73BFA401B41F288312D
:1055A000884201D9032061E62D4868300068C0F3C5
:1055B00040000028EFD1012F07D12948383000687A
:1055C00020F0805026493831086000BFA0690028CB
:1055D00045D02348006800F00C0008285DD0A06981
:1055E000022845D100201F490866FFF711FA054639
:1055F00006E0FFF70DFA401B022801D9032035E62B
:10560000174808380068C0F340600028F1D1D4E999
:1056100007010843616A40EA81110122A06AC2EBD6
:10562000500041EA00412C20005D41EA00600C4935
:10563000091F086001200B490866FFF7E9F90546D4
:1056400006E0FFF7E5F9401B022801D903200DE62B
:10565000034808380068C0F340600028F1D03FE0FC
:105660000838024000004742800E47420070004068
:1056700000201C490866FFF7CBF9054606E0FFF756
:10568000C7F9401B022801D90320EFE5164800683E
:10569000C0F340600028F2D122E0A069012800D1C7
:1056A000E4E511480830066806F48001E0698142AB
:1056B00014D106F03F01206A81420FD147F6C07035
:1056C0003040616A884209D106F44031A06A8142C3
:1056D00004D106F07061E06A814201D00120C5E585
:1056E0000020C3E500004742003802407047704781
:1056F00010B5044620688068C0F3003078B1206897
:10570000C068C0F3002050B12046FFF7F0FF2068CA
:10571000C06800F0800060F4C0702168C860206834
:105720008068C0F3403078B12068C068C0F3402082
:1057300050B12046FFF7DAFF2068C06800F0800013
:1057400060F420702168C8604FF40030024908609E
:105750000120607710BD0000143C014070B5054683
:105760000B4616460024286840680E4900EA0104EA
:10577000200CD870C4F30420587004F03F009870D7
:10578000C4F3423018705EB9D87804F0ADF8D87020
:10579000587804F0A9F85870987804F0A5F8987033
:1057A000002070BD3FFFFF0070B504460B46164653
:1057B00000252068806A586020680069C0F30E00E8
:1057C0009860206800680F4900EA0105C5F30540AC
:1057D0001870C5F30620587005F07F00987005F426
:1057E0008000000CD8705EB9187804F07DF818704D
:1057F000587804F079F85870987804F075F8987033
:10580000002070BD7F7F7F0010B504460CB90120D9
:1058100010BD607F20B900202077204600F060F89E
:105820000220607700BFCA202168486253202168A7
:10583000486200BF204604F06FF840B100BFFF206F
:105840002168486200BF042060770120E0E72068FB
:10585000806822490840216888602169606808439F
:105860006169084321688968084321688860216864
:10587000E068086120680169208941EA00402168E8
:1058800008612068C06820F080002168C860206836
:10589000806800F0200060B9204600F053FA40B163
:1058A00000BFFF202168486200BF0420607701200C
:1058B000AEE72068006C20F480202168086420682E
:1058C000006CA16908432168086400BFFF202168BB
:1058D000486200BF01206077002099E7BFFF8FFF7B
:1058E00010B504460749206888420AD101200649BC
:1058F0000860002211462920FFF752FA2920FFF7FD
:105900003FFA10BD002800403C0E47422DE9F84107
:1059100003460C461546002600277C4800684009CF
:105920004FF47A71B0FBF1F04843009000BF187F4C
:10593000012802D10220BDE8F8810120187700BFBC
:105940000220587755BB1868806800F0400000B10D
:1059500002E00020E07000BFE06900B900E000BF95
:10596000207803F0CCFF4FEA0048607803F0C7FFCF
:1059700048EA0028A07803F0C2FF48EA0008E0786F
:1059800048EA004894F8200003F0B9FF48EA0060B4
:10599000E1690843616940EA01061FE01868806810
:1059A00000F0400000B102E00020E07000BFE069BC
:1059B00000B900E000BF20780004617840EA0120CF
:1059C000A1780843E17840EA014094F8201040EAC9
:1059D0000160E1690843616940EA0106A169606804
:1059E00040EA010700BFCA201968486253201968BD
:1059F000486200BF606AB0F5807F36D11868806861
:105A000020F48070196888601868C06800F0800011
:105A100060F4C0701968C86000BF0098411E009112
:105A200060B900BFFF201968486200BF03205877A3
:105A300000BF0020187700BF03207CE71868C0680B
:105A400000F001000028E8D01868C66118684764B3
:105A50001868806840F480701968886018688068E9
:105A600040F480501968886035E01868806820F438
:105A70000070196888601868C06800F0800060F4E1
:105A800020701968C86000BF0098411E009160B97D
:105A900000BFFF201968486200BF0320587700BF8D
:105AA0000020187700BF032045E71868C068C0F3DE
:105AB00040000028E8D018680662186887641868F3
:105AC000806840F40070196888601868806840F445
:105AD0000050196888600E48006840F400300C4996
