:020000040800F2
:10000000A8370120651C020859F001085BF00108BF
:1000100065F001086FF0010879F0010800000000A8
:1000200000000000000000000000000083F0010854
:1000300085F001080000000087F0010889F0010840
:100040009D200208A1200208A5200208A92002087C
:10005000AD200208B1200208B5200208B92002082C
:10006000BD200208C1200208C5200208C9200208DC
:10007000CD200208D1200208D5200208D92002088C
:10008000DD200208E120020891F00108E5200208C5
:10009000E9200208ED200208F1200208F5200208FC
:1000A0009BF00108A5F00108AFF00108F920020853
:1000B000B9F00108C3F00108CDF00108FD200208E5
:1000C0000121020805210208092102080D21020868
:1000D00011210208D7F00108E1F00108EBF0010856
:1000E00015210208F5F00108192102081D21020856
:1000F0002121020825210208292102082D210208B8
:100100003121020835210208FFF0010839210208D7
:1001100009F1010813F101081DF1010827F1010897
:100120003D21020841210208452102084921020817
:100130004D210208512102085521020859210208C7
:100140005D21020861210208652102086921020877
:100150006D210208712102087521020831F10108A0
:10016000792102087D2102088121020885210208E7
:10017000892102088D210208912102080000000057
:10018000952102089921020838B504000D00A90044
:10019000200002F059FB31BD002805D0012101608B
:1001A0000021416000218160704710B50400002CDF
:1001B0000FD0A068002806D06168A068FFF7E4FFB0
:1001C000A06802F04DFB012020600020606000204C
:1001D000A06010BD2DE9F04105000E0042F2117043
:1001E000864202D37FF00F0022E06868B0421ED240
:1001F0000421300003F0A7FD0400002C02D17FF0A1
:100200000F0015E0A86800280FD068688700D5F8AF
:1002100008803A004146200003F0B6FD6968A868EE
:10022000FFF7B2FFA86802F01BFB6E60AC60002015
:10023000BDE8F0812DE9F84306000F0070688742A1
:1002400004D339003000FFF7C5FF2EE07468641E48
:10025000002C06D0B06850F82400002801D1641E9C
:10026000F6E7641CBC4200D23C000421200003F0ED
:100270006AFD0500002D02D17FF00F0015E0B06887
:1002800000280FD05FEA8408D6F808904246494615
:10029000280003F079FD7168B068FFF775FFB0685A
:1002A00002F0DEFA7460B5600020BDE8F2832DE94B
:1002B000F04705000E000027B54201D100203BE0C9
:1002C000B068002804D12800FFF76FFF002033E05A
:1002D0007168491E002906D0B06850F82100002836
:1002E00001D1491EF6E7491C0C0030682860686897
:1002F000A04207D221002800FFF76CFF070000286A
:1003000019D10DE06868001B5FEA80085FF0000902
:10031000A86800EB840A4A464146504603F0C4FDF3
:100320005FEA8408D6F80890D5F808A04246494606
:10033000504603F029FD3800BDE8F0872DE9F04173
:1003400005000E0017005FF0000878420743FFB277
:10035000FF0971682800FFF73DFF00282FD12968A9
:10036000FFB2D7F101023368FFB27B4302FB0131D8
:10037000296000210C0071688C4211D2A96851F8E3
:100380002410FFB2D7F10102B36853F82430FFB252
:100390007B4302FB0131AA6842F82410641CEAE79F
:1003A00069688C420BD2A96851F82420FFB2D7F1BA
:1003B00001014A43A96841F82420641CF0E7BDE824
:1003C000F0812DE9F04705000E009246B54201D1BB
:1003D000002060E0DAF1000050EA0A0A5FFA8AFAC7
:1003E0005FEADA1A71682800FFF7F4FE0400002CB7
:1003F00050D169683000FFF7EDFE0400002849D1B4
:100400002868070028685FFA8AFADAF10101326881
:100410005FFA8AFA0AFB02F201FB002028603168C9
:100420005FFA8AFADAF101025FFA8AFA0AFB07F048
:1004300002FB01013160002080466868804529D2B6
:10044000A86850F828008146A86850F828005FFA8C
:100450008AFADAF10101B26852F828205FFA8AFAC2
:100460000AFB02F201FB0020A96841F82800B068ED
:1004700050F828105FFA8AFADAF101025FFA8AFA74
:100480000AFB09F002FB0101B06840F8281018F1DE
:100490000108D2E72000BDE8F0872DE9F843050008
:1004A0000E0001212800FFF795FE0400002C18D152
:1004B000686887005FF00008D5F808904246390068
:1004C000484603F0F1FC002E01D5704200E03000F8
:1004D000A9680860002E02D55FF0FF3000E001201F
:1004E00028602000BDE8F28302005068B1EB401F95
:1004F00001D3002009E090680A00520950F8220058
:1005000011F01F01C84010F0010070472DE9F843B9
:1005100005000E0014000027B0465FEA581816F0D8
:100520001F09E4B2002C05D0E4B2012C02D07FF008
:10053000030025E06868B6EB401F0CD3E4B2002C42
:1005400001D100201CE018F101012800FFF742FE54
:100550000700002813D1A86850F82800012111FADB
:1005600009F18843A96841F82800A86850F82810C4
:10057000E4B214FA09F00143A86840F828103800E2
:10058000BDE8F28310B401000024002248688242D2
:1005900010D200200300202B0AD2886850F82200D5
:1005A000D840C00701D5200005E05B1C641CF2E7C1
:1005B000521CEBE7002010BC704701005FF00042C6
:1005C0000020202804D2114202D15208401CF8E732
:1005D000704738B505006868002801D1002013E095
:1005E0006C68641E002C06D0A86850F8240000280F
:1005F00001D1641EF6E7A86850F82400FFF7DDFF7C
:10060000D0F1200010EB441032BD10B504002000E2
:10061000FFF7DFFFC01DC00810BD0300FF201860FA
:10062000D2B2302A06DBD2B23A2A03DAD2B2B2F11F
:1006300030001860D2B2412A06DBD2B2472A03DA70
:10064000D2B2B2F137001860D2B2612A06DBD2B260
:10065000672A03DAD2B2B2F15700186018688842EC
:1006600002D37FF0050000E0002070472DE9F04F35
:1006700085B005000E001700022E01DB112E02DBF3
:100680007FF0030099E001A8FFF786FD380003F032
:100690004DFC8046102E52D1B8F1804F02D37FF02E
:1006A00003008AE05FEA880010F01F0F01D00120EC
:1006B00000E000205FEA8801490951FA80F94946C3
:1006C0002800FFF787FD8346002872D1002128000B
:1006D000FFF7E3FE834600286BD1444600208246A4
:1006E000002C66D0012C09D107EB040010F8010C96
:1006F0002D2803D15FF0FF3028605AE007EB04009B
:1007000010F8012C31006846FFF787FF8346002868
:100710004FD1A8685146C908AA685346DB0852F869
:100720002320009B5FEA8A0C1CF01C0C13FA0CF3CC
:100730001A4340F82120641E1AF1010AD0E7002173
:100740002800FFF7AAFE8346002832D100200400CB
:1007500044452ED2002C06D1385D2D2803D15FF000
:10076000FF30286023E03A5D31006846FFF755FF0F
:10077000834600281DD13200290001A800F005FFA2
:100780008346002815D12868012808D1009A01A9BC
:10079000280000F05EFB834600280AD107E0009A9B
:1007A00001A9280000F071FB8346002801D1641CD8
:1007B000CEE701A8FFF7F9FC584605B0BDE8F08F79
:1007C0002DE9F04705000E00170017F0030F01D0C8
:1007D000012000E000203900890851FA80FA686899
:1007E00050450CD02800FFF7E0FC2800FFF7D4FCB0
:1007F00051462800FFF7EEFC8046002824D1002156
:100800002800FFF74AFE804600281DD13C0000204A
:100810008146002C18D0A86849468908AA684B462A
:100820009B0852F8232006EB040313F8013C5FEA0F
:10083000C90C1CF0180C13FA0CF31A4340F82120D1
:10084000641E19F10109E4E74046BDE8F0872DE98F
:10085000F04105000E0017002800FFF7D6FE040047
:10086000A74202D27FF0070019E05FF0000842467D
:100870003900300003F018FB791E0022002C0DD047
:10088000A86813009B0850F82300D30013F0180346
:10089000D8407054491E521C641EEFE70020BDE88A
:1008A000F0812DE9F84F070088465FF0000B4546C0
:1008B0006D0918F01F063800FFF78BFE040018EBD7
:1008C000040478684001A0420FD214F01F0F01D039
:1008D000012000E000202100490951FA80F1380090
:1008E000FFF778FC814600283DD100208146002D8D
:1008F0001AD078680400A5420CD2B86800EB8400D6
:10090000B968621B01EB820151F8041C40F8041C19
:10091000641EF0E7002C07D0B86800EB84000021CB
:1009200040F8041C641EF5E7002E1CD02C007868EB
:10093000844218D2B86850F82400D6F12001C8408B
:100940008246B86850F82400B040B96841F82400E5
:10095000B86850F824005BEA0000B96841F8240048
:10096000D346641CE3E74846BDE8F28F2DE9F04723
:10097000070088465FF0000A4646760918F01F0512
:100980007868B04204D37868864206D1002D04D03E
:1009900000213800FFF781FD43E0002E17D0002032
:1009A00004007868801B844208D2B868311950F876
:1009B0002100B96841F82400641CF2E77868844299
:1009C00005D20020B96841F82400641CF6E7002D28
:1009D00026D078680400002C22D0B86800EB840090
:1009E00050F8041CD5F1200081408946B86800EB1E
:1009F0008400B96801EB840151F8041CE94040F817
:100A0000041CB86800EB8400B96801EB840151F85C
:100A1000041C5AEA010140F8041CCA46641EDAE7C5
:100A20000020BDE8F08730B404000B0061680029A5
:100A300008D0A06800EB810050F8040C002801D118
:100A4000491EF4E75A68002A08D0986800EB820033
:100A500050F8040C002801D1521EF4E752EA0100BC
:100A6000002801D100202AE08A4201D2012026E09C
:100A7000914202D25FF0FF3021E000291ED0986839
:100A800000EB810050F8040CA56805EB810555F8D2
:100A9000045CA84201D2012011E0A06800EB8100B3
:100AA00050F8040C9D6805EB810555F8045CA842DC
:100AB00002D25FF0FF3002E0491EDEE7002030BCCA
:100AC000704730B404000B006168002908D0A068AA
:100AD00000EB810050F8040C002801D1491EF4E716
:100AE0005A68002A08D0986800EB820050F8040C7D
:100AF000002801D1521EF4E752EA0100002801D17A
:100B000000203BE08A4201D2206837E0914202D2C5
:100B10001868404232E02068012804DB1868002889
:100B200001D501202AE01868012805DB206800288B
:100B300002D55FF0FF3021E000291ED0986800EB5D
:100B4000810050F8040CA56805EB810555F8045C9C
:100B5000A84201D2206811E0A06800EB810050F8A3
:100B6000040C9D6805EB810555F8045CA84202D28F
:100B70002068404202E0491EDEE7002030BC70479A
:100B800030B585B004000D00002D02D568420090FC
:100B900000E00095002D02D55FF0FF3000E001205D
:100BA0000190012002906846039001A92000FFF700
:100BB00088FF05B030BD2DE9F04F83B006000F006F
:100BC0009046464502D1380037008046BE4206D0E6
:100BD00039003000FFF76BFB0090002869D101203D
:100BE0003060D8F804000400002C09D0D8F80800C0
:100BF00000EB840050F8040C002801D1641EF3E7D8
:100C000021003000FFF7E6FA0090002851D1D8F813
:100C100008008246B0688346002005000020814617
:100C2000A14523D2DAF800000190DBF80000281873
:100C3000CBF80000DBF80000A84201D2012500E05B
:100C40000025EDB2DBF8001001984118CBF8001038
:100C5000DBF800000199884201D26D1CFFE719F111
:100C600001091AF1040A1BF1040BD9E7002D20D069
:100C7000706881450BD319F101013000FFF7AAFA22
:100C80000090002815D1B06800EB89008346DBF89E
:100C900000002818CBF80000DBF80000A84201D2C1
:100CA000012500E00025EDB219F101091BF1040B4B
:100CB000DCE70098BDE8FE8FF0B4030000200500DB
:100CC0009D421AD21468844201D2012600E0002617
:100CD000F6B21468241A146014680F68BC4201D27A
:100CE000012000E0002056FA80F017680C683F1BD6
:100CF00017606D1C091D121DE2E700280CD0146856
:100D0000844201D2012600E00026F6B21468241ABB
:100D100014603000121DF0E7F0BC70472DE9F0417F
:100D200084B005000E00170039003000FFF77BFE8D
:100D3000002802D57FF0090030E06846FFF72CFA62
:100D4000BD4208D139006846FFF7B1FA8046002855
:100D500020D168460700B54206D031002800FFF7D1
:100D6000A6FA8046002815D1012028600020804680
:100D700078680400002C08D0B86800EB840050F8B4
:100D8000040C002801D1641EF4E7AA68B9682000A9
:100D9000FFF792FF6846FFF708FA404604B0BDE847
:100DA000F081F8B504000D0016002F68296830683E
:100DB0004143002918D531002800FFF734FE0028F0
:100DC00008D4320029002000FFF7A8FF002813D123
:100DD000276011E02A0031002000FFF79FFF002864
:100DE0000AD17942216007E0320029002000FFF794
:100DF000E2FE002800D12760F2BDF8B504000D0026
:100E000016002F68296830684143012918DB31003A
:100E10002800FFF708FE002808D43200290020002F
:100E2000FFF77CFF002813D1276011E02A00310072
:100E30002000FFF773FF00280AD17942216007E004
:100E4000320029002000FFF7B6FE002800D12760FD
:100E5000F2BD7FB504000D001600002E02D57042D1
:100E6000009000E00096002E02D55FF0FF3000E019
:100E700001200190012002906846039001AA2900F8
:100E80002000FFF78EFF04B070BD7FB504000D0099
:100E90001600002E02D57042009000E00096002E51
:100EA00002D55FF0FF3000E00120019001200290A8
:100EB0006846039001AA29002000FFF79EFF04B0B6
:100EC00070BD2DE9F84F04000D00160000225FF000
:100ED000000B102CC0F0D3812868A3FB000115F192
:100EE000040C80460D0012EB0808904501D26D1CE1
:100EF000FFE7376817EB08083768B84501D26D1C63
:100F0000FFE7C6F8008016F1040EDCF80060A3FBD2
:100F100006671CF1040CB94615EB060AAA4503D274
:100F200019F101094A4600E04A46DEF8000010EBDC
:100F30000A0AD146DEF80000814501D2521CFFE7C3
:100F4000CEF800901EF1040EDCF80000A3FB0001B7
:100F50001CF104088C4612EB000A924502D21CF1E7
:100F6000010CFFE7DEF8005015EB0A0AD146DEF867
:100F70000050A94502D21CF1010CFFE7CEF8009009
:100F80001EF1040ED8F80050A3FB056718F1040504
:100F9000B8461CEB060AE24503D218F101084246A6
:100FA00000E04246DEF8000010EB0A0AD046DEF808
:100FB0000000804501D2521CFFE7CEF800801EF1F0
:100FC000040E2868A3FB00012D1D894612EB000AC0
:100FD000924503D219F10109CC4600E0CC46DEF877
:100FE000006016EB0A0AD046DEF80060B04502D277
:100FF0001CF1010CFFE7CEF800801EF1040E2E68F4
:10100000A3FB06672D1DB9461CEB060AE24503D279
:1010100019F101094A4600E04A46DEF8000010EBEB
:101020000A0AD046DEF80000804501D2521CFFE7D4
:10103000CEF800801EF1040E2868A3FB00012D1DD0
:10104000894612EB000A924503D219F10109CC46F8
:1010500000E0CC46DEF8006016EB0A0AD046DEF867
:101060000060B04502D21CF1010CFFE7CEF8008011
:101070001EF1040E2E68A3FB06672D1DB9461CEB5E
:10108000060AE24503D219F101094A4600E04A4640
:10109000DEF8000010EB0A0AD046DEF800008045BA
:1010A00001D2521CFFE7CEF800801EF1040E286822
:1010B000A3FB00012D1D894612EB000A924503D2C5
:1010C00019F10109CC4600E0CC46DEF8006016EBD1
:1010D0000A0AD046DEF80060B04502D21CF1010CCD
:1010E000FFE7CEF800801EF1040E2E68A3FB066712
:1010F0002D1DB9461CEB060AE24503D219F1010980
:101100004A4600E04A46DEF8000010EB0A0AD046E4
:10111000DEF80000804501D2521CFFE7CEF80080C7
:101120001EF1040E2868A3FB00012D1D894612EB59
:10113000000A924503D219F10109CC4600E0CC46E1
:10114000DEF8006016EB0A0AD046DEF80060B04513
:1011500002D21CF1010CFFE7CEF800801EF1040E54
:101160002E68A3FB06672D1DB9461CEB060AE24557
:1011700003D219F101094A4600E04A46DEF80000B0
:1011800010EB0A0AD046DEF80000804501D2521C5E
:10119000FFE7CEF800801EF1040E2868A3FB0001D3
:1011A0002D1D894612EB000A924503D219F101095F
:1011B000CC4600E0CC46DEF8006016EB0A0A574643
:1011C000DEF80060B74202D21CF1010CFFE7CEF856
:1011D00000701EF10406D5F800E0A3FB0E892D1D5A
:1011E000CE461CEB080AE24503D21EF1010E724600
:1011F00000E07246306810EB0A0A514630688142BE
:1012000001D2521CFFE73160301D2E68A3FB066738
:101210002D1DBE4612EB060A924503D21EF1010EA9
:10122000F44600E0F446016811EB0A0AD046016872
:10123000884502D21CF1010CFFE7C0F8008010F1D4
:10124000040E2868A3FB00012D1D89461CEB000A33
:10125000E24502D219F10109FFE7DEF8002012EBA6
:101260000A0ADEF80020924502D219F10109FFE7CF
:101270004A46CEF800A01EF10406103C29E6082CD0
:10128000C0F0E7802868A3FB000115F1040C80463C
:101290000D0012EB0808904501D26D1CFFE737687E
:1012A00017EB08083768B84501D26D1CFFE7C6F890
:1012B000008016F1040EDCF80060A3FB06671CF149
:1012C000040CB94615EB060AAA4503D219F1010927
:1012D0004A4600E04A46DEF8000010EB0A0AD14612
:1012E000DEF80000814501D2521CFFE7CEF80090E5
:1012F0001EF1040EDCF80000A3FB00011CF1040841
:101300008C4612EB000A924502D21CF1010CFFE759
:10131000DEF8005015EB0A0AD146DEF80050A94568
:1013200002D21CF1010CFFE7CEF800901EF1040E72
:10133000D8F80050A3FB056718F10405B8461CEB6C
:10134000060AE24503D218F10108424600E042468F
:10135000DEF8000010EB0A0AD046DEF800008045F7
:1013600001D2521CFFE7CEF800801EF1040E28685F
:10137000A3FB00012D1D894612EB000A924503D202
:1013800019F10109CC4600E0CC46DEF8006016EB0E
:101390000A0A5746DEF80060B74202D21CF1010C7F
:1013A000FFE7CEF800701EF10406D5F800E0A3FBBD
:1013B0000E892D1DCE461CEB080AE24503D21EF114
:1013C000010E724600E07246306810EB0A0A514680
:1013D0003068814201D2521CFFE73160301D2E6817
:1013E000A3FB06672D1DBE4612EB060A924503D2EB
:1013F0001EF1010EF44600E0F446016811EB0A0A02
:10140000D0460168884502D21CF1010CFFE7C0F804
:10141000008010F1040E2868A3FB00012D1D8946F1
:101420001CEB000AE24502D219F10109FFE7DEF8E0
:10143000002012EB0A0ADEF80020924502D219F1D0
:101440000109FFE74A46CEF800A01EF10406083C59
:1014500015E7002C1BD02868A3FB00012D1D844636
:101460008E4612EB0C0C944502D21EF1010EFFE7E2
:10147000376817EB0C0C3768BC4502D21EF1010E21
:10148000FFE77246C6F800C0361D641EE1E71BF197
:10149000010B3068101830603068904201D2012290
:1014A00000E00022D2B2361D002AF2D1BDE8F18F51
:1014B0002DE9F04387B006000F00904603A8FEF721
:1014C0006BFE6846FEF768FEBE4208D1390003A8ED
:1014D000FEF7EDFE814600284DD103A807004645E2
:1014E00008D141466846FEF7E2FE8146002842D117
:1014F0006846804678680500002D08D0B86800EB83
:10150000850050F8040C002801D16D1EF4E7D8F8CE
:1015100004000400002C09D0D8F8080000EB840077
:1015200050F8040C002801D1641EF3E76119300063
:10153000FEF750FE814600281DD100213000FEF745
:10154000ACFF8146002816D1002C0FD0D8F8080037
:1015500000EB840050F8043CB06800EB8400021FEC
:10156000B9682800FFF7ADFC641EEDE73968D8F8CC
:101570000000414331606846FEF717FE03A8FEF7FE
:1015800014FE484607B0BDE8F0837FB504000D00A7
:1015900016000120019001200290684603900096F9
:1015A00001AA29002000FFF783FF04B070BD2DE9D8
:1015B000FC4D80460D0016001C00002E01D0B045E9
:1015C00007D3002C02D05FF0FF3020605FF0FF30C7
:1015D0002BE0424600231300002228000021104384
:1015E0001943CDE90001DDE900013200002302F0DA
:1015F000C5FC00220123994207D301D8904204D3AD
:101600005FF0FF32002310001900002C0DD0DDE93F
:1016100000AB0027A6FB002306FB013307FB0033CA
:10162000BAEB02027BEB03032260BDE8F68D2DE9E5
:10163000F04F91B006000F009046994600214846B1
:10164000FFF79EFA002802D17FF00B00CAE168463E
:10165000FEF7A2FD07A8FEF79FFD04A8FEF79CFD7C
:101660000AA8FEF799FD0DA8FEF796FD49464046EB
:10167000FFF7D9F9002815D5002E07D0002130003A
:10168000FEF70BFF8246002840F09C81002F07D018
:1016900041463800FEF70BFE8246002840F092815A
:1016A00000209FE141466846FEF701FE8246002881
:1016B00040F08881494607A8FEF7F9FD82460028D8
:1016C00040F080810120079007980090D8F804101E
:1016D000891C04A8FEF77EFD8246002840F0728136
:1016E000002104A8FEF7D9FE8246002840F06A8156
:1016F00002210AA8FEF76EFD8246002840F06281B2
:1017000003210DA8FEF766FD8246002840F05A81AD
:1017100007A8FEF75EFF10F01F001F2813D28346B4
:10172000DBF11F0B59466846FFF7BBF882460028DD
:1017300040F04881594607A8FFF7B3F882460028D1
:1017400040F0408101E05FF0000B0198401E0390E3
:101750000898401E05000398401B410107A8FFF7A9
:10176000A0F88246002840F02D8107A96846FFF7BF
:10177000A8F9002814D406980399491B069A039BDC
:101780005B1B52F82320521C40F8212007AA69460F
:101790006846FFF732FB8246002840F01381E4E7F9
:1017A0000398401B410107A8FFF7E0F88246002894
:1017B00040F0088103980400A54280F0D980029887
:1017C00050F82400099951F82510884208D306984A
:1017D000611B00EB81005FF0FF3140F8041C13E057
:1017E0000023099850F82520029800EB840050F857
:1017F000041C029850F82400FFF7D9FE0699621BDA
:1018000001EB820141F8040C0698611B00EB81009A
:101810000699621B01EB820151F8041C491C40F837
:10182000041C0698611B00EB81000699621B01EB0A
:10183000820151F8041C491E40F8041C00210AA82A
:10184000FEF72BFE8246002840F0BC80002D01D11F
:10185000002004E0099800EB850050F8040C0C9976
:101860000860099850F825000C9948600698611B9B
:1018700000EB810050F8042C0AA90AA8FFF785FEA6
:101880008246002840F09E8000210DA8FEF705FE4C
:101890008246002840F09680022C01D2002004E00D
:1018A000029800EB840050F8080C0F990860002C97
:1018B00001D1002004E0029800EB840050F8040CF1
:1018C0000F994860029850F824000F9988600DA97C
:1018D0000AA8FFF7F6F80128A3DA0698611B00EBC7
:1018E000810050F8042C07A90AA8FFF74EFE824693
:1018F000002867D1601B401E41010AA8FEF7D1FFF6
:10190000824600285ED10AAA69466846FFF775FA42
:101910008246002856D100216846FFF731F9002899
:1019200024D507A90AA8FEF7C2FC8246002849D19F
:10193000601B401E41010AA8FEF7B3FF8246002843
:1019400040D10AAA69466846FFF72BFA824600286A
:1019500038D10698611B00EB81000699621B01EBF0
:10196000820151F8041C491E40F8041C641E23E740
:10197000002E0CD004A93000FEF799FC8246002806
:1019800020D1D8F80010D9F8000041433160002F71
:1019900018D059466846FEF7E9FF8246002811D163
:1019A000D8F80000009069463800FEF780FC8246B7
:1019B000002807D100213800FFF7E2F8002801D104
:1019C000012038606846FEF7F0FB07A8FEF7EDFB44
:1019D00004A8FEF7EAFB0AA8FEF7E7FB0DA8FEF74E
:1019E000E4FB504611B0BDE8F08FF8B505000E00DD
:1019F000170000213800FFF7C3F8002802D57FF058
:101A0000090027E03B00320029000020FFF70FFE0D
:101A10000400002C1DD100212800FFF7B1F8002898
:101A200008D53A0029002800FFF7BBF90400002878
:101A30000FD1F0E739002800FFF743F8002808D459
:101A40003A0029002800FFF7D8F90400002800D147
:101A5000F0E72000F2BDF0B505000B00002A02D12E
:101A60007FF00B003AE0002A02D57FF0090035E054
:101A7000012A03D10020286000202FE0022A06D18D
:101A80009868007810F001002860002026E059686E
:101A9000002400291AD0986800EB810050F8040C4B
:101AA00084465FEA1C4C5CEA044CBCFBF2FE02FB81
:101AB0001ECC000406003400240C54EA0C44B4FB91
:101AC000F2F0070002FB1744491EE2E718680028FD
:101AD00002D5002C00D0141B2C600020F0BD30B4C7
:101AE0008A681268931C5B0013F008039B1820247B
:101AF000082C06D303FB02F5D5F102056B436408FD
:101B0000F6E7DD436D1C056030BC70472DE9F84FEA
:101B100084B004000D0016000E9F78687168491C9F
:101B2000884202D3B868002802D17FF003005EE04B
:101B300078685FEA800A5FF0000BD7F808805A46A1
:101B40005146404602F0B0F9D7F80880D6F8049024
:101B50006868484502D26868019001E0CDF80490B9
:101B60005FF0000ACA4525D2A06850F82A0000900C
:101B7000D8F80010009AA868006800FB02110498C9
:101B800041430291009B4246A9680198FFF799F9E9
:101B9000029B4246B1684846FFF793F90098C8F89F
:101BA000000018F10408002008EB890148601AF1D0
:101BB000010AD7E719F1010080000390D4F808B0BA
:101BC000039A4146584602F0DFF831002000FEF744
:101BD0002AFF002805D4A268B1684846FFF76CF8D0
:101BE00004E0BA68A1684846FFF766F8002005B02F
:101BF000BDE8F08FF0B585B004000D0016001F00A1
:101C000001200190019802900298039001A804908D
:101C1000009733002A0002A92000FFF777FF05B0E4
:101C2000F0BD2DE9F64FADF5C06D93B005001E0077
:101C30000120039000213000FEF7A2FF012803DB02
:101C4000B0680078C00702D47FF0030051E20021A1
:101C5000DDF85006FEF794FF002802D57FF0030060
:101C600047E2310001A8FFF73AFF0BA8FEF794FA0C
:101C700008A8FEF791FA10A8FEF78EFA4FF4C06795
:101C80005FF000080DF14C0942463900484602F069
:101C90000BF9DDF85006FEF79CFC8146B9F5287F6C
:101CA00001D306270FE0B9F1F00F01D305270AE0B1
:101CB000B9F1500F01D3042705E0B9F1180F01D392
:101CC000032700E00127072F01D3062007007068D3
:101CD000401C029002992800FEF77CFA80460028FA
:101CE00040F0DB81029916A8FEF774FA80460028BE
:101CF00040F0D3810298410008A8FEF76BFA8046B5
:101D0000002840F0CA81DDF84C06006810F1010F90
:101D100002D10120069001E00020069006980028DC
:101D20000DD0DDF84C1610A8FEF7C1FA8046002849
:101D300040F0B3810120109010A8CDF84C06DDF8DA
:101D40007806002804D0DDF87806806800282CD1B9
:101D500001210BA8FEF7A1FB8046002840F09D81E1
:101D60007168402041430BA8FEF79BFD8046002888
:101D700040F0938132000BA90BA8FFF736FE804696
:101D8000002840F08A81DDF8780600281AD00C205F
:101D90000F900BA80E90DDF8780600900F9A0E9920
:101DA000009801F0F1FF00980CE00C200F90DDF896
:101DB00078060E900BA800900F9A0E99009801F0EB
:101DC000E3FF00983100DDF84C06FEF77AFE0028AC
:101DD0000AD43200DDF84C1616A8FFF706FE80463E
:101DE000002840F05A8108E0DDF84C1616A8FEF7EE
:101DF0005EFA8046002840F0508108A80090019BC0
:101E000032000BA916A8FFF781FE8046002840F09B
:101E100044810BA92800FEF74AFA8046002840F0CA
:101E20003C8108AB019A31002800FFF7E3FE8046B1
:101E3000002840F03281022F7BD303993800401EE6
:101E4000814002917168491C13AA029B0C204343F4
:101E500002EB0300FEF7BEF98046002840F01D812A
:101E600016A913AA029B0C20434302EB0300FEF7C2
:101E70001EFA8046002840F0108100208146781E1E
:101E800081451CD208A80090019B320013A9DDF8FF
:101E900008C00C2000FB0CFC61440DF14C0CDDF87B
:101EA00008E00C2000FB0EFE0CEB0E00FFF72EFEF0
:101EB0008046002840F0F18019F10109DFE702981F
:101EC000401C81460398B840814532D27168491C54
:101ED00013A80C2202FB09F21044FEF77BF980469E
:101EE000002840F0DA8013A80C2101FB09F1084416
:101EF000B0F10C0113A80C2202FB09F21044FEF70A
:101F0000D6F98046002840F0C88008A80090019BC0
:101F1000320016A913A85FF00C0C0CFB09FC6044FE
:101F2000FFF7F4FD8046002840F0B78019F1010961
:101F3000C8E7DDF8500640680590002004900020B6
:101F400082460020834600200400049800280AD11D
:101F50000598002802D1002081465AE00598401ECD
:101F60000590202004900498401E0490DDF850064F
:101F70008068059950F821000499C84010F00100CC
:101F80000790079820430028DFD0079800280DD13C
:101F9000012C0BD108A80090019B320029002800D9
:101FA000FFF7B4FD8046002877D1CEE70220040079
:101FB0001AF1010A0799B7EB0A00814051EA0B0BAD
:101FC000BA45C2D100208146B9450DD208A800907B
:101FD000019B320029002800FFF798FD8046002869
:101FE0005BD119F10109EFE708A80090019B3200CD
:101FF00013A80C2101FB0BF101442800FFF786FD1B
:102000008046002849D1641E002082460020834675
:102010009BE7D1451FD208A80090019B3200290000
:102020002800FFF773FD8046002836D15FEA4B0B8E
:102030000398B8401BEA000F0AD008A80090019B43
:10204000320016A92800FFF761FD8046002824D140
:1020500019F10109DDE708AB019A31002800FFF70B
:10206000C9FD8046002818D10698002815D0DDF853
:1020700050064068002810D0DDF8500680680078CF
:10208000C0070AD55FF0FF3028602A003100280021
:10209000FEF787FE80460028FFD103993800401ED6
:1020A0008140009100980399B94088420BD213A94E
:1020B000009A0C20424301EB0200FEF776F80098EC
:1020C000401C0090EEE716A8FEF76FF808A8FEF790
:1020D0006CF810A8FEF769F8DDF87806002804D03F
:1020E000DDF878068068002802D10BA8FEF75DF8BD
:1020F00040460DF5C06D15B0BDE8F08F2DE9F043F9
:1021000089B005000E00170006A8FEF745F803A8E1
:10211000FEF742F86846FEF73FF8310003A8FEF7E5
:10212000C6F80400002C71D139006846FEF7BFF8EC
:10213000040000286AD103A8FEF724FA8046684606
:10214000FEF720FA8146C14500D2C846414603A8A1
:10215000FEF70CFC0400002858D141466846FEF703
:1021600005FC0400002851D1012000900098039044
:10217000002103A8FEF704FD002839D003A8FEF7CC
:1021800001FA010003A8FEF7F1FB040000283DD18D
:102190006846FEF7F7F901006846FEF7E7FB040022
:1021A000002833D1694603A8FEF78BFC00280FD422
:1021B0006A4603A903A8FEF7B1FD0400002825D153
:1021C000012103A8FEF7D2FB040000281ED1CFE7AF
:1021D00003AA69466846FEF7A1FD0400002815D150
:1021E00001216846FEF7C2FB040000280ED1BFE7BC
:1021F00041466846FEF755FB0400002806D16946B3
:102200002800FEF754F804000028FFD106A8FDF7C7
:10221000CCFF03A8FDF7C9FF6846FDF7C6FF200005
:1022200009B0BDE8F0832DE9F041ADF5806D050002
:102230000E001700984640F20140864202D37FF01C
:10224000030014E0320069464046B8470400002C01
:1022500007D1320069462800FEF7B2FA04000028D0
:10226000FFD14FF48061684600F0EEFA20000DF5D2
:10227000806DBDE8F081F0B59BB005000E00170041
:1022800001213800FEF77CFC012802DA7FF0030010
:1022900057E115A8FDF780FF0CA8FDF77DFF09A801
:1022A000FDF77AFF06A8FDF777FF18A8FDF774FF82
:1022B00012A8FDF771FF0FA8FDF76EFF6846FDF746
:1022C0006BFF03A8FDF768FF3A00310018A8FFF77D
:1022D00015FF0400002C40F01881012118A8FEF71A
:1022E0004FFC002803D07FF00D0004000DE13A0000
:1022F000310015A8FFF779FB0400002840F00581A4
:1023000015A90CA8FDF7D3FF0400002840F0FD80BC
:10231000390012A8FDF7CBFF0400002840F0F5803B
:1023200039000FA8FDF7C3FF0400002840F0ED803E
:10233000012109A8FEF7B1F80400002840F0E5806B
:10234000002106A8FEF7A9F80400002840F0DD806F
:1023500000216846FEF7A1F80400002840F0D5806F
:10236000012103A8FEF799F80400002840F0CD8071
:102370000E980078C00732D401210CA8FEF7F6FAB7
:102380000400002840F0C1800B980078C00703D4F7
:1023900008980078C00711D512AA09A909A8FEF764
:1023A00000FD0400002840F0B08015AA06A906A888
:1023B000FEF723FD0400002840F0A780012109A8B2
:1023C000FEF7D4FA0400002840F09F80012106A8FF
:1023D000FEF7CCFA0400002840F09780C8E7119877
:1023E0000078C0072ED401210FA8FEF7BFFA040021
:1023F000002840F08A8002980078C00703D405982E
:102400000078C0070FD512AA69466846FEF7C9FCD6
:102410000400002879D115AA03A903A8FEF7EDFC52
:102420000400002871D101216846FEF79FFA0400DC
:1024300000286AD1012103A8FEF798FA04000028B9
:1024400063D1CCE70FA90CA8FEF73BFB002818D4FA
:102450000FAA0CA90CA8FEF7D0FC0400002854D148
:102460006A4609A909A8FEF7C8FC040000284CD157
:1024700003AA06A906A8FEF7C0FC0400002844D160
:1024800017E00CAA0FA90FA8FEF7B7FC040000285C
:102490003BD109AA69466846FEF7AFFC0400002854
:1024A00033D106AA03A903A8FEF7A7FC040000285D
:1024B0002BD100210CA8FEF763FB00287FF458AF56
:1024C00000216846FEF75CFB002808D53A00694603
:1024D0006846FEF766FC0400002816D1F0E73900D4
:1024E0006846FEF7EEFA002808D43A0069466846C6
:1024F000FEF783FC0400002807D1F0E769462800B6
:10250000FDF7D5FE04000028FFD115A8FDF74DFE0C
:102510000CA8FDF74AFE09A8FDF747FE06A8FDF73F
:1025200044FE18A8FDF741FE12A8FDF73EFE0FA8D5
:10253000FDF73BFE6846FDF738FE03A8FDF735FEC4
:1025400020001BB0F0BD70B582B004000025A0686B
:102550000078C00702D47FF00D0025E00026DFF8E8
:10256000E40250F8260001281DDBDFF8D80250F8FD
:1025700026102000FEF704FB012801DA012013E0F9
:10258000DFF8C00250F8262021006846FFF763FA02
:102590000500002807D10098002802D17FF00D0027
:1025A00002E0761CDBE7280076BD2DE9F04F93B002
:1025B00004000D00160004A8FDF7EEFD09A8FDF7C4
:1025C000EBFD0CA8FDF7E8FD01A8FDF7E5FD0FA860
:1025D000FDF7E2FD0122210004A8FEF756FC824629
:1025E000002840F0E88004A8FDF7CCFF079004A97C
:1025F00009A8FDF75CFE8246002840F0DC800799C0
:1026000009A8FEF7B3F98246002840F0D4802000E4
:10261000FDF7DFFF40F21451884201D3022119E097
:1026200040F25231884201D3032113E040F28A2163
:10263000884201D304210DE0B0F5AF7F01D308211A
:1026400008E0FA2801D30C2104E0962801D31221D6
:1026500000E01B2108915FF0000B0898834580F093
:10266000AA8033002A006068810001A8FFF7DBFD23
:102670008246002840F09F8004A901A8FEF721FAB5
:10268000002812D401A8FDF7A4FF009004A8FDF7CC
:10269000A0FF0099081A804618F1010101A8FEF771
:1026A00065F98246002840F086800398006850F063
:1026B0000300039908600020070033002A006068C7
:1026C000810001A8FFF7AFFD8246002873D101A861
:1026D000FDF77FFF804604A8FDF77BFF8146C145DB
:1026E00007D2B8EB090101A8FEF740F9824600289D
:1026F00061D13800471C1F2802DB7FF00D006AE023
:1027000004A901A8FEF7DDF90028D6D5012101A80A
:10271000FEF736FA0128D0DB0FA80090230009AAA3
:1027200001A901A8FFF77DFA8246002843D104A938
:1027300001A8FEF7C6F9002805D0012101A8FEF77F
:102740001FFA002800D133E0012080460798804519
:102750001ED204A901A8FEF7B4F9002818D001AAD6
:1027600001A90CA8FEF7A4FE8246002823D122006E
:102770000CA901A8FFF739F9824600281BD10121D5
:1027800001A8FEF7FDF9002802D018F10108DDE7E5
:1027900004A901A8FEF795F9002805D1012101A897
:1027A000FEF7EEF9002803D17FF00D00824602E02B
:1027B0001BF1010B51E704A8FDF7F7FC09A8FDF791
:1027C000F4FC0CA8FDF7F1FC01A8FDF7EEFC0FA846
:1027D000FDF7EBFC504613B0BDE8F08FFEB50500E9
:1027E0000E0017000120009068680190A868029010
:1027F00000216846FEF7C4F9002805D0012168468B
:10280000FEF7BEF9002802D17FF00D0018E002218A
:102810006846FEF7B5F9002801D1002010E06846AF
:10282000FFF791FE0400002C05D0012C01D10020FF
:1028300006E0200004E03A0031006846FFF7B5FEEC
:10284000FEBD0000C8E9010838B504000D002A00EB
:1028500000212000014B1B68984731BD2005002056
:1028600000F0F8BF81B000F5E0700268914203D338
:1028700043681A44914202D380680028F5D101B020
:102880007047DFF87417086890B94FF480504860BB
:102890004FF480324FF0FF308A60C8600861042036
:1028A000DFF85827DFF858374861C2F8BC010B60E1
:1028B0000120704701F1080313F0070F0EBF00233A
:1028C000C3F1080303F007031944D21A8161C260FF
:1028D00042F001034B60091D28238B50DFF81817C5
:1028E0000A69C26170472DE9FC47044601F10800FE
:1028F00010F0070F0FBF8A46C0F1080000F0070074
:1029000001EB000A02F1080111F0070F06D002F1F5
:102910000800C0F1080000F0070002441646A6EBCC
:102920000A000AEB0307A0EB030843F00303CAF80D
:102930000430B74228BF01F098FB3079C10758BF77
:1029400001F093FBB8F1100F38BF01F08EFBA069C6
:10295000864207D1E0684044E060A76140F0010092
:10296000786050E1606986420AD1A0688044C4F86A
:102970000880676148F00100786047F8088042E10C
:10298000706800F00301012940F0AB80C008C0006E
:102990000190C0081F2839D8B568D6F80C9000906F
:1029A0004E4508BF01F061FBAE4208BF01F05DFB80
:1029B00070680099C008C000B0EBC10F18BF01F0EB
:1029C00054FB009904F1280000EBC100854206D0B9
:1029D00022699542C0F08080E968B1427CD1A94566
:1029E00006D100982168012282409143216075E060
:1029F000814506D0206981456ED3D9F80800B042E0
:102A00006AD1C5F80C90C9F8085067E0F568D6F8A7
:102A10001890B5420CD0B0682169884222D3C168B1
:102A2000B14204BFA968B1421CD1C560A8601BE0D7
:102A300006F11402156835B906F1100215689DB14A
:102A400001E01A46156805F114031968002902BF50
:102A500005F1100318680028F3D121698A4228BFC4
:102A6000106001D201F001FBB9F1000F36D0F1691D
:102A700004F5987000EB81000268964208D1056069
:102A8000A5B9F0696168012282409143616025E047
:102A90002069814508D3D9F81000B04214BFC9F8A5
:102AA0001450C9F8105001E001F0DFFAB5B1216906
:102AB0008D4211D3C5F81890306928B1884226BFDD
:102AC0002861856101F0D1FA706938B121698842C5
:102AD00002D36861856101E001F0C7FA01983618F8
:102AE0008044706840084000706048F001017960DF
:102AF0004FEAD80547F808801F2D23D804F1280095
:102B000000EBC5094E46B8F1100F38BF01F0ADFA21
:102B1000206820FA05F1C90705D4012101FA05F55D
:102B20000543256007E0D9F80800216988422CBFD9
:102B3000064601F09AFAC9F80870F760BE60C7F857
:102B40000C9060E05FEA182008BF002223D0B0F5A7
:102B5000803F28BF1F221ED2A0F58071090C01F012
:102B600008018840A0F58052120C02F00402904047
:102B7000A0F580431B0CC1F10E0103F00203891A7A
:102B8000C91A984001EBD031C81D28FA00F202F0B2
:102B9000010202EB410204F5987101EB8200FA6137
:102BA000002179613961616821FA02F3DB0707D4FA
:102BB000012303FA02F20A4362600760B8611DE074
:102BC00001681F2A1DBF5208C2F1190208FA02F259
:102BD000424600E001464868C008C000404516D0A3
:102BE00001F11003D50F03EB85035200186800288C
:102BF000F0D12069834204D31F60B961FF60BF60D8
:102C000001E001F032FA0AF10800BDE8F687226916
:102C10008868914228BF9042F3D3C7608F60B86044
:102C2000F9600020B861EEE72DE9F04F054683B06A
:102C3000AE698A463746934698463946FFF712FEF4
:102C400001684068CDF800B001EB0009A9F1270147
:102C500011F007000EBF0021C1F1080101F00701CA
:102C6000009ACDF804A009EB01000199A0F12F040E
:102C700007F110008442284638BF3C46283AFFF747
:102C800019FE04F1080004F1180A4FF0000B10F0CF
:102C9000070F18BF01F0E9F91B20606004F108017B
:102CA00005F5E07090E80C5081E80C500199016046
:102CB00000994160C0F80C8004F10801816001E0D6
:102CC0000AF1040A0720CAF804000BF1010B0AF10B
:102CD00008004845F4D3BBF1010FD8BF01F0C5F996
:102CE000BC4200F09580E41B381D391D0059400896
:102CF0004000085144F0010179604FEAD4083C518A
:102D0000B8F11F0F21D805EBC80000F12806B14625
:102D1000102C38BF01F0A9F9286820FA08F1C9077A
:102D200005D4012101FA08F10843286006E0B068E3
:102D3000296988422CBF814601F097F9B760C9F82C
:102D40000C70C7F80890FE606FE0200A08BF0021F1
:102D500023D0B0F5803F28BF1F211ED2A0F580727E
:102D6000120C02F008029040A0F58051090C01F00D
:102D700004018840A0F580431B0CC2F10E0203F051
:102D80000203521AD21A984002EBD032D01D24FA14
:102D900000F101F0010101EB420105EB810200238A
:102DA00002F59870F9617B613B616A6822FA01F370
:102DB000DB0707D4012303FA01F1114369600760BF
:102DC000B8611DE002681F291DBF4908C1F1190142
:102DD00004FA01F1214600E002465068C008C00034
:102DE000A04216D002F11003C80F03EB8003490084
:102DF00018680028F0D12869834204D31F60BA61A3
:102E0000FF60BE6011E003B0BDE8F04F01F02DB9E6
:102E10000BE0296990688A4228BF8842F3D3C760D3
:102E20009660B860FA600020B86103B0BDE8F08F2A
:102E30002DE9F041704F05463868884608B9FFF71C
:102E400020FDB96801EB08002F30491E20EA01017E
:102E500088457BD205F5D876B06828B132688918E4
:102E60008A4273D2884271D301F002F901001CBF7B
:102E70000C6811F1010F69D0306820183060726859
:102E8000824238BF02467260A86960BB286908B1F7
:102E9000814200D22961316174610020F06105F145
:102EA0002802386868624FF0FF3028620020D26044
:102EB000926002F1080353611361801C10322028D4
:102EC000F5D34E48854208BFA4F1280228D055F812
:102ED000040CC00805EBC002A2F108000A19121A7E
:102EE000283A01461CE005F5E070024600E09268D1
:102EF0007AB3136857683B449942F8D1137B1F0794
:102F000027D4AB691768BB4223D3D2F804C0674407
:102F1000BB421ED2A444C2F804C0E868A9692218C2
:102F20002846FFF7C7FC1FE08068C0B103689342E2
:102F3000FAD1027B130712D4026801604368E418D7
:102F4000446043462846BDE8F041CCE40020BDE89B
:102F5000F0812A69914238BF29610A19E5E7002307
:102F600022462846FFF760FEE8688045EED2A0EBD7
:102F70000800A969E86001EB0802AA6140F00100BD
:102F8000506048F00300486001F10800BDE8F0819E
:102F900038B4194B1A6882B94FF480525A604FF412
:102FA00080344FF0FF329C60DA601A610422134CC7
:102FB000134D5A61C4F8BC211D6011F1400F17D2A6
:102FC0008269AAB1C368283199420BD200F5E07139
:102FD0000C68A24203D34D682C44A24202D38968F4
:102FE0000029F5D1C16999423CBF4FF0FF31C16161
:102FF00032BC00207047000040170020100A00205B
:103000006859883C2DE9F84F00248846090AC8F120
:10301000000908BF002323D0B1F5803F28BF1F233C
:103020001ED2A1F58072120C02F008029140A1F5A7
:1030300080531B0C03F004039940A1F58046360C25
:10304000C2F10E0206F00206D21A921BB14002EB48
:10305000D132D11D28FA01F303F0010303EB42033F
:10306000064606F5987B5BF8230040B31F2B0FBF85
:10307000C4464FEA530CCCF1190C08FA0CFCA646D6
:10308000494601E04FEA4C0C4268D208D200A2EB5C
:1030900008028A4203D21100044600F06B814269A3
:1030A00010304FEADC7950F82900002A1CBF824218
:1030B00096460028E6D189467046B0BBBCBB0120CD
:1030C00000FA03F35B00584203437068034000F0CA
:1030D0005081584203405B1E180B00F01000C340A3
:1030E000590901F00801CB409A0802F00402D340CC
:1030F0005D0805F002050818EB401018C3F34007FF
:1031000028443844FB401B185BF823000DE00846B8
:103110004168C908C900A1EB080149453CBF89467F
:10312000044601690029F2D140690028F0D1002C41
:1031300000F01F81B068A0EB0800814580F0198184
:1031400030698442C0F0138108EB0900009008EB5D
:1031500009016068C008C000884218BF00F085FF00
:1031600004EB0807BC4280F00281E568D4F818A09F
:10317000A5420CD0A0683169884222D3C168A1421F
:1031800004BFA968A1421CD1C560A8601BE004F17E
:103190001402156835B904F1100215689DB101E0FB
:1031A0001A46156805F114031968002902BF05F1D4
:1031B000100318680028F3D131698A4228BF1060D3
:1031C00001D200F052FFBAF1000F35D0E1690BEBEC
:1031D00081000268944208D10560A5B9E069716870
:1031E000012282409143716026E03069824508D314
:1031F000DAF81000A04214BFCAF81450CAF81050F0
:1032000001E000F032FFBDB13069854212D3C5F84C
:1032100018A0206930B13169884226BF28618561D4
:1032200000F023FF606938B13169884202D36861D8
:10323000856101E000F019FFB9F1100F0AD2009882
:1032400040F003006060211D00980A5842F001021E
:103250000A5088E048F00300606049F0010078609F
:103260004FEAD90047F809901F281DD806EBC00186
:1032700001F12805316821FA00F2D207A84605D4E9
:10328000012202FA00F00843306006E0A8683169C4
:1032900088422CBF804600F0E8FEAF60C8F80C7092
:1032A000C7F80880FD605EE05FEA192008BF0022D1
:1032B00023D0B0F5803F28BF1F221ED2A0F5807119
:1032C000090C01F008018840A0F58052120C02F0B0
:1032D00004029040A0F580431B0CC1F10E0103F0E5
:1032E0000203891AC91A984001EBD031C81D29FA86
:1032F00000F202F0010202EB4102FA610021796161
:1033000039610BEB8200716821FA02F3DB0707D405
:10331000012303FA02F20A4372600760B8611DE0FC
:1033200001681F2A1DBF5208C2F1190209FA02F2F0
:103330004A4600E001464868C008C00048451BD026
:1033400001F11003D00F03EB80035200186800282E
:10335000F0D13069834204D31F60B961FF60BF6060
:1033600001E000F082FE04F10800BDE8F28F00F0F9
:103370007CFE10E18946A0E632698868914228BF48
:103380009042EED3C7608F60B860F9600020B861EA
:10339000E9E72DE9F84F0646884671684842014042
:1033A000491E080B00F01000C1404A0902F0080253
:1033B000D1408B0803F00403D9404D0805F0020505
:1033C0001018E9401818C1F34004281806F5987A37
:1033D0002044E14009185AF821104868C008C0008C
:1033E0000D46A0EB080909E001464868C008C00086
:1033F000A0EB080048453CBF81460D4608690028FF
:10340000F2D149690029F0D130698542C0F0C1800C
:103410006868C00808EB090BC000584518BF00F0E9
:1034200024FE05EB08008542009080F0B280EF6832
:10343000AC69AF420CD0A8683169884222D3C16818
:10344000A94204BFB968A9421CD1C760B8601BE09B
:1034500005F11402176837B905F1100217689FB11A
:1034600001E01A46176807F114031968002902BF22
:1034700007F1100318680028F3D131698A4228BF88
:10348000106001D200F0F1FD002C31D0E9690AEBA7
:1034900081000268954208D107608FB9E8697168B8
:1034A000012282409143716022E03069844205D359
:1034B0002069A84214BF6761276101E000F0D5FDD3
:1034C000B7B13069874211D3BC61286930B1316925
:1034D000884226BF3861876100F0C7FD686938B14E
:1034E0003169884202D37861876101E000F0BDFD57
:1034F000B9F1100F0BD24BF003006860291D281D95
:1035000050F80B0040F0010041F80B003DE048F09E
:103510000301696049F00100291D41F80800009885
:1035200040F80990D6F808804FEAD80BBBF1200F7D
:1035300028BF00F09AFDB8F1000F22D006EBCB00B7
:10354000776900F12804A246B8F1100F38BF00F0E7
:103550008CFD306820FA0BF1C90705D4012101FA6E
:103560000BF10843306006E0A068316988422CBF47
:10357000824600F07AFDA760CAF80C70C7F808A070
:10358000FC60C6F808900098706105F10800BDE87D
:10359000F28F00F06AFD0020BDE8F28F2DE9F04FB8
:1035A00083B00546AFF30080F52DDFF8D86780F0D3
:1035B00004810B2D31BF10250B35ED08ED0030686F
:1035C000EC08E04010F0030F46D0C04300F00100CB
:1035D000041906F1280000EBC408E700D8F80850E9
:1035E0006868C008C000B84218BF00F03EFDD5F8BA
:1035F0000890454508BF00F038FD4D4508BF00F074
:1036000034FD6868C008C000B84218BF00F02DFD46
:10361000C84507D13168012000FA04F421EA040406
:1036200034600DE03069814508D3D9F80C00A84218
:1036300004D1C8F80890C9F80C8001E000F015FD2D
:1036400047F003006860291D281D05F10804C059D2
:1036500040F00100C851F8E0B168A94280F0BE8096
:10366000002800F0A1804FF0010808FA04F1490099
:1036700000FA04F4484201430C4060420440641ED6
:10368000200B00F01000C440610901F00801CC409B
:10369000A20802F00402D440630803F002030818F1
:1036A000DC401018C4F3400718183818FC402418E0
:1036B00006F1280000EBC40AE700DAF80890D9F810
:1036C0000400C008C000B84218BF00F0CEFCD9F812
:1036D00008B0D14508BF00F0C8FCD94508BF00F0CC
:1036E000C4FCD9F80400C008C000B84218BF00F0FC
:1036F000BCFCDA4506D1316808FA04F421EA040476
:1037000034600DE03069834508D3DBF80C00484590
:1037100004D1CAF808B0CBF80CA001E000F0A5FC79
:1037200045F00300C9F804007F1B09F1040147F0CC
:103730000100485109EB05000190C751B4684FEAF8
:10374000D40ABAF1200F28BF00F08FFC34B3CDF8B3
:1037500000A006F12800756900EBCA0AD346102CB8
:1037600038BF00F082FC3168009821FA00F2D307DC
:1037700004D408FA00F00843306007E0DAF80800E3
:10378000316988422CBF834600F06FFCCAF80850AC
:10379000CBF80C50C5F808B0C5F80CA0B76009F11B
:1037A00008040198706150E07068C0B32946304643
:1037B000FFF7EFFD040011D047E015F1400F28BFDF
:1037C0004FF0FF350AD20B35ED087068ED0028B1D7
:1037D00029463046FFF716FC040036D1B068A842EF
:1037E0001DD3411B726910290AD350197061B16051
:1037F00041F001034360415045F0030555600BE083
:103800000021B1607161131D40F003015160111D71
:10381000095841F00101195002F1080415E0F0685F
:1038200085420DD2401BB169F0604A19B26140F087
:103830000100506045F003054D6001F1080404E00B
:1038400029463046FFF7F4FA0446AFF300802046DD
:10385000FFF7EBBA002800D170472DE9F04782B09E
:10386000A0F10805AFF30080DFF8186532699542D2
:10387000C0F05682686800F00301012900F0508210
:10388000C1084FEAC109C10705EB090839D42C6802
:1038900010F0030F00F04682604205449542A144B7
:1038A000C0F03E827069854200F0C780E408202C99
:1038B0005ED2D5F80CA0AF68554508BF00F0D5FB27
:1038C000BD4208BF00F0D1FB6868C008C000B0EB83
:1038D000C40F18BF00F0C9FB06F1280000EBC400BC
:1038E000874205D031698F423FD3F968A9423CD164
:1038F000BA452CD13068012101FA04F420EA04040D
:103900003460454580F00C82D8F80410C80740F1B7
:103910000782880700F16581B069804540F0A0808A
:10392000F068B5618144C6F80C9049F00100686008
:103930007069854202D100207061B060F06948452D
:1039400080F0F08100213046FFF722FBEAE182455A
:1039500006D03069824508D3DAF80800A84204D1BD
:10396000C7F80CA0CAF80870CBE700F07EFBC8E7E8
:10397000EC68AF69AC420BD0A868904223D3C16811
:10398000A94204BFA168A9421DD1C460A0601CE087
:1039900005F114031C6834B905F110031C68A4B1C7
:1039A00001E063461C6804F1140CDCF800100029E7
:1039B00002BF04F1100CDCF800000028F1D19342A2
:1039C00028BF196001D200F050FB002F99D0E9699F
:1039D00006F5987000EB81000268954209D10460F9
:1039E000200011D1E8697168012282409143716021
:1039F00087E73069874205D33869A84214BF7C61E4
:103A00003C6101E000F031FB002C3FF47AAF3169FA
:103A10008C42AAD3A761286928B1884226BF2061B9
:103A2000846100F022FB686900283FF46AAF3169C5
:103A300088429AD36061846163E798F8040000F0DB
:103A4000030003287FF45DAFC6F8089049F0010138
:103A5000D8F8040040084000C8F8040069600AE093
:103A6000706980450AD1B06875618144C6F80890D4
:103A700049F00100686045F8099053E1C808C000AA
:103A80004FEAD00ABAF1200F814435D2D8F80C7031
:103A9000D8F80840B84508BF00F0E7FAA04508BFCD
:103AA00000F0E3FAD8F80400C008C000B0EBCA0F79
:103AB00018BF00F0DAFA06F1280000EBCA008442D1
:103AC00006D031698C42C0F07F80E16841457BD1EE
:103AD000A74206D13068012101FA0AF1884330601B
:103AE00074E0874205D0306987426DD3B86840459D
:103AF0006AD1E760BC6069E0D8F80C40D8F818706B
:103B000044450DD0D8F808003169884222D3C168F5
:103B1000414504BFA16841451CD1C460A0601BE0C1
:103B200008F11402146834B908F1100214689CB149
:103B300001E01A46146804F114031968002902BF51
:103B400004F1100318680028F3D131698A4228BFB4
:103B5000106001D200F089FA002F37D0D8F81C107D
:103B600006F5987000EB8100026890450AD1046068
:103B7000200012D1D8F81C007168012282409143C4
:103B8000716023E03069874205D33869404514BF2E
:103B90007C613C6101E000F068FABCB131698C42A3
:103BA00012D3A761D8F8100028B1884226BF20613F
:103BB000846100F05AFAD8F8140038B131698842AB
:103BC00002D36061846101E000F04FFA49F0010026
:103BD000686045F80990706985420BD1C6F8089075
:103BE000A0E048084000C8F8040049F001006860FF
:103BF00045F809904FEAD907202F22D206F1280074
:103C000000EBC704A046B9F1100F38BF00F02DFA41
:103C1000306820FA07F1C90705D4012101FA07F736
:103C20000743376006E0A068316988422CBF8046B0
:103C300000F01BFAA560C8F80C50C5F80880EC60CD
:103C400070E05FEA192008BF002223D0B0F5803F62
:103C500028BF1F221ED2A0F58071090C01F00801B7
:103C60008840A0F58052120C02F004029040A0F5AA
:103C700080431B0CC1F10E0103F00203891AC91A1B
:103C8000984001EBD031C81D29FA00F202F0010280
:103C900002EB410206F5987101EB82000021696197
:103CA0002961EA61716821FA02F3DB0707D4012375
:103CB00003FA02F20A4372600560A8611DE0016820
:103CC0001F2A1DBF5208C2F1190209FA02F24A4620
:103CD00000E001464868C008C000484526D001F110
:103CE0001003D40F03EB8403520018680028F0D1AE
:103CF0003069834204D31D60A961ED60AD6001E0CD
:103D000000F0B3F9306A401E30620BD1D6F8C8011A
:103D100000E080680028FCD14FF0FF30306201E005
:103D200000F0A3F9AFF30080BDE8F387326988683B
:103D3000914228BF9042E3D3C5608D60A860E960DE
:103D40000020A861DEE738B5002558B141EA00023D
:103D5000120C01FB00F512041EBFB5FBF0F0884207
:103D60004FF0FF352846FFF719FC04001CBF14F87C
:103D7000040C10F0030F03D02946204600F08EF902
:103D8000204632BD100A002062B38B0708D0521EB5
:103D900011F8013B00F8013B00F024808B07F6D1BD
:103DA000830740F0208000BF103A07D330B4B1E859
:103DB0003810103AA0E83810F9D230BC530724BFAD
:103DC000B1E80810A0E8081044BF51F8043B40F8DF
:103DD000043BD20724BF31F8022B20F8022B44BF4A
:103DE0000B7803707047121F17D35B0009D151F88D
:103DF000043B20F8023B1B0C121F20F8023BF6D2BA
:103E00000BE051F8043B00F8013B1B0A20F8023B91
:103E10001B0C121F00F8013BF3D238BF121D521EBB
:103E200024BF11F8013B00F8013BF8D87047F0B40B
:103E30000246106895681318506803EB5004C007D9
:103E400021D54D441FE0F0BC02F10C00704713F87F
:103E5000017B05F8017B491EF9D1A0B1B60813F822
:103E6000011B06F00306032E08BF13F8016B01EBDC
:103E700006214942801C294405D011F8016B05F840
:103E8000016B401EF9D1A342DDD013F8016B16F08F
:103E9000030104BF13F8011BC91C30090F28DAD134
:103EA00013F8010B0F30D6E762F30F2262F31F42C3
:103EB000401810F0030308D0C91A1FD3DB0748BF0E
:103EC00000F8012D28BF20F8022D130030B414464D
:103ED0001546103928BF20E93C00FAD8490728BF09
:103EE00020E90C0048BF40F8042D890028BF20F8C5
:103EF000022D48BF00F8012D30BC7047C91818BF0B
:103F000000F8012DCB0728BF00F8012D7047B1F54F
:103F1000807F02D34FF0FF3070470170012070475F
:103F20000078401E8041C043C00F704700F101037C
:103F3000810704D010F8011B89B18107FAD102680A
:103F4000B2F10131914311F0803F04BF50F8042FCA
:103F5000F6E710F8011B11B110F8011BFBE7C01ABE
:103F600070478268521C8260426832B10268531CFA
:103F7000036011704168491E416070471B4213D1B4
:103F8000094236D12AB18446B0FBF2F002FB10C2DE
:103F9000704700F08BB8FCD30022002370470B0061
:103FA0000200002100207047904271EB030CF6D311
:103FB00070B5B1FA81F4B3FA83F52C1BA340C4F1B8
:103FC000200532FA05F63343A2405FF00046E64092
:103FD00002E05B085FEA3202841A71EB030524BF3A
:103FE000204629467641F4D302000B003000002120
:103FF00070BD012ACFD970B5140C20D0B1FA81F46C
:10400000B2FA82F5C4F120046419B4F12006D6D3C3
:10401000B2405FF00044F440002502E052085FEA3D
:104020003303C61A71EB020E24BF30467146644159
:104030006D41F3D302000B002000290070BD0C4637
:10404000B1FBF2F102FB11452D0445EA1045B5FB29
:10405000F2F402FB145580B240EA0545B5FBF2F0DC
:1040600002FB105240EA044070BD012000F020B86D
:104070000749086808B1002070470648C008C0001A
:1040800008600549C908C900091A0160704700BFE6
:1040900094170020AF370120A88701200022FFF7E6
:1040A00007BF0268531C036011707047704700001F
:1040B00080B5AFF30080024A11001820ABBEFBE7C9
:1040C00026000200DFF87806704710B582B0DFF8EE
:1040D00074060068002814D10024FFF7F3FF01786C
:1040E000002906D00178DFF860261155641C0C30D9
:1040F000F5E70021DFF8502611550121DFF84426AD
:104100001160DFF8440616BD10B50400FFF7DAFFB2
:1041100001000878002808D008782200D2B2904226
:1041200001D1080002E00C31F3E7002010BD10B50A
:104130000400FFF7C7FF01000878002808D048886E
:10414000220092B2904201D1080002E00C31F3E764
:10415000002010BD0100086B002801D1002005E0FF
:10416000C86B002801D1022000E00120704710B583
:104170000400002C0AD02000FCF70EF814F10C000B
:10418000FCF70AF814F11800FCF706F810BD70B53A
:104190000400002C06D07C250026320029002000D7
:1041A000FFF782FE70BD10B50400002C0AD020007D
:1041B000FFF7EDFF14F17C00FBF7EEFF14F1880030
:1041C000FFF7D5FF10BD10B50400002C0AD0200069
:1041D000FBF7EBFF14F10C00FBF7E7FF14F11800FD
:1041E000FBF7E3FF10BD38B50400002C2DD0206E86
:1041F000012812D0201DFBF7D8FF14F11000FBF7A7
:10420000D4FF14F11C00FBF7D0FF14F12800FFF7D6
:10421000DAFF14F14C00FBF7C8FF606F002810D0E4
:1042200000200500A06F854208D2606F242101FBA9
:1042300005F10844FFF7C7FF6D1CF3E7606FFEF759
:104240000FFB7C212000FEF7FFFA31BD10B5040002
:10425000002C0AD02000FFF7C6FF14F17C00FBF70A
:10426000A4FF14F18800FFF7AEFF10BD70B5050084
:104270000E0031002800FCF71AF80400002C11D1C0
:1042800016F10C0115F10C00FCF711F804000028E0
:1042900008D116F1180115F11800FCF708F8040010
:1042A0000028FFD1200070BD38B504000D0029782A
:1042B000200002F043F932BD38B505000121280085
:1042C000FCF7EBF80400002C0FD1012115F10C00D4
:1042D000FCF7E3F80400002807D1002115F11800CD
:1042E000FCF7DBF804000028FFD1200032BD10B538
:1042F0000400002114F11800FCF742FC002801D151
:10430000012000E00020C0B210BD2DE9F8430600F6
:104310000F0090461C00002C02D1DFF830043CE076
:1043200098F80000002808D1012C03D13800FFF7CD
:10433000C3FF32E0DFF814042FE0301DFCF765F90D
:10434000814698F80000042802D0DFF8040424E035
:104350005FEA4900401C844202D0DFF8F0031CE011
:104360004A4618F101013800FCF72AFA0500002D31
:1043700012D14A4608EB0900411C17F10C00FCF76A
:104380001FFA0500002807D1012117F11800FCF7DA
:1043900084F805000028FFD12800BDE8F28370B53D
:1043A00005000E00706E002805D1321D290028007E
:1043B000FDF71BFB3AE02868002805D500212800FE
:1043C000FCF7DEFB002806D12800FCF702F9B16DEE
:1043D0004900814202D2DFF8740327E02800716EA1
:1043E00088470400002C20D1286800280ED5002121
:1043F0002800FCF7C5FB002808D0321D2900280042
:10440000FCF7CFFC040000280FD1EDE7311D280098
:10441000FCF757FB002808D4321D29002800FCF7C0
:104420007DFC0400002800D1F0E7200070BD70B5CD
:1044300086B005000E00002116F11800FCF7A0FB65
:10444000002801D100205FE003A8FBF7A5FE684625
:10445000FBF7A2FE2A1D16F1180103A8FDF70BFFBA
:104460000400002C49D103AA03A96846FDF720F8EF
:104470000400002841D129006846FFF790FF04009E
:1044800000283AD16A4631003000FDF711F80400E7
:10449000002832D129003000FFF781FF04000028F6
:1044A0002BD16A4616F10C0116F10C00FDF700F84D
:1044B0000400002821D1290016F10C00FFF76FFF3E
:1044C0000400002819D103AA16F10C0116F10C0002
:1044D000FCF7EEFF040000280FD1290016F10C00B4
:1044E000FFF75DFF0400002807D1012116F1180035
:1044F000FBF7D3FF04000028FFD103A8FBF755FE0C
:104500006846FBF752FE200006B070BD2DE9F0476B
:104510008AB0070088469146B9F1020F05D2D8F853
:1045200000103800FFF783FF06E10C214846FFF733
:104530000AFC0500002D02D1DFF86C0CFCE003A89A
:10454000FBF72AFE6846FBF727FE06A8FBF724FECA
:10455000D8F8000010F118012800FBF7A8FE0600AB
:10456000002E40F0CF80012004004C4520D258F8A6
:10457000240010F118020C2000FB04F02844B0F1D4
:104580000C010C2000FB04F02844FCF791FF06000E
:10459000002840F0B78039000C2000FB04F02844CC
:1045A000FFF7FDFE0600002840F0AC80641CDCE74D
:1045B0003A1D0C2000FB09F02844B0F10C0103A8BF
:1045C000FDF759FE0600002840F09C80B9F101007B
:1045D0000400002C08D103A96846FBF768FE06001A
:1045E000002840F08F8026E00C2000FB04F02844D7
:1045F000B0F10C0203A96846FCF75AFF0600002838
:1046000040F0808039006846FFF7C9FE06000028A8
:1046100078D158F8240010F1180203A903A8FCF778
:1046200047FF060000286DD1390003A8FFF7B7FE49
:104630000600002866D16A46694606A8FCF738FFDE
:10464000060000285ED1390006A8FFF7A8FE060084
:10465000002857D106AA58F8241058F82400FCF76F
:1046600027FF060000284DD1390058F82400FFF735
:1046700096FE0600002845D106AA58F8240010F13D
:104680000C0158F824000C30FCF712FF060000283B
:1046900038D1390058F824000C30FFF780FE0600AE
:1046A00000282FD16A4658F8240010F10C0158F860
:1046B00024000C30FCF7FCFE0600002822D1390053
:1046C00058F824000C30FFF76AFE0600002819D1C4
:1046D000B96858F82400FBF7ADFD0600002811D199
:1046E000B96858F824000C30FBF7A4FD0600002838
:1046F00008D158F824001830FBF757FD002C01D0E2
:10470000641E66E703A8FBF750FD6846FBF74DFD06
:1047100006A8FBF74AFD5FF0000ACA4508D20C2044
:1047200000FB0AF02844FBF740FD1AF1010AF4E708
:104730002800FEF795F830000AB0BDE8F0870000C9
:1047400070000208781700206C17002080B0FFFF6F
:1047500080B1FFFF2DE9F04184B005000E00170085
:104760006846FBF719FD16F10C02291D6846FCF797
:1047700044FB0400002C16D1002116F10C00FCF7BC
:10478000FFF9002802D05FF0010801E05FF00008A7
:1047900018EA0702D2B2694616F10C00FBF7CEFD0B
:1047A00004000028FFD16846FBF7FFFC200004B09E
:1047B000BDE8F081F0B58DB005000E00170009A826
:1047C000FBF7EAFC6846FBF7E7FC03A8FBF7E4FC11
:1047D00006A8FBF7E1FCA869002872D117F11802BE
:1047E00017F118016846FCF763FE0400002C40F046
:1047F0002F8229006846FFF7D2FD0400002840F010
:1048000027826A46390003A8FCF7CBFA0400002887
:1048100040F01E82291D03A8FCF753F9002809D493
:104820002A1D03A903A8FCF779FA0400002840F028
:104830000F82EFE76A46390006A8FCF7DEFA0400AB
:10484000002840F00582069800280FD5002106A810
:10485000FCF796F9002809D02A1D06A906A8FCF73E
:10486000A0FA0400002840F0F381ECE706AA03A9AF
:104870006846FCF71DFE0400002840F0E98129008D
:104880006846FFF78CFD0400002840F0E181032218
:10489000694609A8FCF779FE0400002840F0D88199
:1048A000291D09A8FCF70DF9002800F18A802A1DAE
:1048B00009A909A8FCF732FA0400002840F0C881D1
:1048C000EEE73A0039006846FCF7F2FD0400002CE0
:1048D00040F0BE8129006846FFF761FD0400002812
:1048E00040F0B6810322694609A8FCF74EFE040099
:1048F000002840F0AD81291D09A8FCF7E2F8002846
:1049000009D42A1D09A909A8FCF708FA04000028FF
:1049100040F09E81EFE7002115F11000FCF730F91F
:1049200000284ED017F1180217F118016846FCF75D
:10493000BFFD0400002840F08B8129006846FFF786
:104940002EFD0400002840F083816A46694603A8D2
:10495000FCF7AEFD0400002840F07A81290003A88E
:10496000FFF71DFD0400002840F0728115F11002D0
:1049700003A96846FCF79CFD0400002840F068810C
:1049800029006846FFF70BFD0400002840F0608115
:104990006A4609A909A8FCF704FA0400002840F0B7
:1049A0005781291D09A8FCF78CF8002809D42A1D75
:1049B00009A909A8FCF7B2F90400002840F04881D1
:1049C000EFE717F10C0217F10C0103A8FCF770FDDB
:1049D0000400002840F03C81290003A8FFF7DFFC19
:1049E0000400002840F03481012103A8FBF759FF9F
:1049F0000400002840F02C81291D03A8FCF761F871
:104A0000002809D42A1D03A903A8FCF787F904008C
:104A1000002840F01D81EFE703AA39006846FCF743
:104A200047FD0400002840F0138129006846FFF785
:104A3000B6FC0400002840F00B8101216846FBF71A
:104A400030FF0400002840F00381291D6846FCF770
:104A500038F8002809D42A1D69466846FCF75EF933
:104A60000400002840F0F480EFE703AA03A906A899
:104A7000FCF71EFD0400002840F0EA80290006A88B
:104A8000FFF78DFC0400002840F0E280012106A819
:104A9000FBF707FF0400002840F0DA80291D06A874
:104AA000FCF70FF8002809D42A1D06A906A8FCF770
:104AB00035F90400002840F0CB80EFE709AA09A9E6
:104AC00003A8FCF7F5FC0400002840F0C180290091
:104AD00003A8FFF764FC0400002840F0B9806A4690
:104AE00003A903A8FCF789F90400002840F0B0806E
:104AF000039800280FD5002103A8FCF741F80028EF
:104B000009D02A1D03A903A8FCF74BF904000028CB
:104B100040F09E80ECE76A4603A903A8FCF76DF914
:104B20000400002840F09480039800280FD500214D
:104B300003A8FCF725F8002809D02A1D03A903A81B
:104B4000FCF72FF90400002840F08280ECE703AA6C
:104B500069466846FCF751F90400002878D10098AE
:104B600000280ED500216846FCF70AF8002808D076
:104B70002A1D69466846FCF714F90400002867D12D
:104B8000EDE709AA69466846FCF792FC0400002894
:104B90005ED129006846FFF702FC0400002857D1C7
:104BA00006AA69466846FCF728F9040000284FD198
:104BB000009800280ED500216846FBF7E1FF002889
:104BC00008D02A1D69466846FCF7EBF80400002867
:104BD0003ED1EDE717F1180217F10C0106A8FCF71A
:104BE00067FC0400002833D1290006A8FFF7D7FB93
:104BF000040000282CD1012106A8FBF752FE040076
:104C0000002825D1291D06A8FBF75BFF002808D442
:104C10002A1D06A906A8FCF781F80400002817D170
:104C2000F0E703A93000FBF742FB040000280FD196
:104C3000694616F10C00FBF73AFB0400002807D187
:104C400006A916F11800FBF732FB04000028FFD17B
:104C500009A8FBF7AAFA6846FBF7A7FA03A8FBF72F
:104C6000A4FA06A8FBF7A1FA20000DB0F0BD2DE9CB
:104C7000F04196B005000E0017009846002117F18C
:104C80001800FBF77DFF002804D141463000FFF7F4
:104C9000EDFAF0E1D8F8200000280BD0002118F13F
:104CA0001800FBF76DFF002804D139003000FFF732
:104CB000DDFAE0E1D8F82000002809D0012118F140
:104CC0001800FBF75DFF002802D0DFF8400BD2E1AF
:104CD0006846FBF761FA09A8FBF75EFA03A8FBF741
:104CE0005BFA0FA8FBF758FA06A8FBF755FA0CA8D1
:104CF000FBF752FA12A8FBF74FFA17F1180217F157
:104D000018016846FCF7D4FB0400002C40F09D819C
:104D100029006846FFF743FB0400002840F0958116
:104D200017F11802694609A8FCF7C2FB0400002825
:104D300040F08B81290009A8FFF731FB040000280F
:104D400040F08381424669466846FCF7B1FB0400A7
:104D5000002840F07A8129006846FFF720FB040014
:104D6000002840F0728118F10C0209A909A8FCF78B
:104D70009FFB0400002840F06881290009A8FFF784
:104D80000EFB0400002840F060813A006946684646
:104D9000FCF733F80400002840F057810098002801
:104DA0000FD500216846FBF7EBFE002809D02A1D2D
:104DB00069466846FBF7F5FF0400002840F045818E
:104DC000ECE717F10C0209A909A8FCF716F8040092
:104DD000002840F03A81099800280FD5002109A841
:104DE000FBF7CEFE002809D02A1D09A909A8FBF768
:104DF000D8FF0400002840F02881ECE70021684635
:104E0000FBF7BEFE002811D1002109A8FBF7B8FE70
:104E1000002806D13A0031002800FFF7CBFC04003F
:104E200013E13000FFF748FA04000EE16A4617F17B
:104E3000180112A8FCF73CFB0400002840F0058193
:104E4000290012A8FFF7ABFA0400002840F0FD800B
:104E50006A46694603A8FCF72BFB0400002840F0D3
:104E6000F480290003A8FFF79AFA0400002840F014
:104E7000EC806A4603A90FA8FCF71AFB040000287F
:104E800040F0E38029000FA8FFF789FA040000280A
:104E900040F0DB803A0003A903A8FCF709FB0400FB
:104EA000002840F0D280290003A8FFF778FA040018
:104EB000002840F0CA80022203A96846FCF765FB7F
:104EC0000400002840F0C180291D6846FBF7F9FD69
:104ED000002809D42A1D69466846FBF71FFF040015
:104EE000002840F0B280EFE709AA09A906A8FCF75C
:104EF000DFFA0400002840F0A880290006A8FFF788
:104F00004EFA0400002840F0A0806A4606A906A8D0
:104F1000FBF773FF0400002840F0978006980028F4
:104F20000FD5002106A8FBF72BFE002809D02A1D6B
:104F300006A906A8FBF735FF0400002840F085808D
:104F4000ECE70FAA06A906A8FBF757FF0400002804
:104F50007BD1069800280ED5002106A8FBF710FE8D
:104F6000002808D02A1D06A906A8FBF71AFF04008E
:104F700000286AD1EDE706AA03A903A8FBF73DFFC5
:104F80000400002861D1039800280ED5002103A851
:104F9000FBF7F6FD002808D02A1D03A903A8FBF79C
:104FA00000FF0400002850D1EDE709AA03A903A8D7
:104FB000FCF77EFA0400002847D1290003A8FFF778
:104FC000EEF90400002840D117F10C020FA90FA838
:104FD000FCF76EFA0400002837D129000FA8FFF76C
:104FE000DEF90400002830D10FAA03A90CA8FBF7B2
:104FF00004FF0400002828D10C9800280ED50021B9
:105000000CA8FBF7BDFD002808D02A1D0CA90CA890
:10501000FBF7C7FE0400002817D1EDE706A9300012
:10502000FBF745F9040000280FD10CA916F10C007C
:10503000FBF73DF90400002807D112A916F118006A
:10504000FBF735F904000028FFD16846FBF7ADF8FF
:1050500009A8FBF7AAF803A8FBF7A7F80FA8FBF726
:10506000A4F806A8FBF7A1F80CA8FBF79EF812A875
:10507000FBF79BF8200016B0BDE8F0812DE9F04762
:1050800086B004000D0016001F005FF00009D4F880
:1050900058A01AF1070A5FEADA0A6846FBF77CF8BB
:1050A00003A8FBF779F83B00320051466846FDF74C
:1050B000BAF8804600286CD1211D6846FBF701FD37
:1050C000002807D401216846FBF750FC80460028E1
:1050D0005FD1F1E7484610F101090B2802DBDFF848
:1050E000900C5DE001216846FBF74AFD0128DADB00
:1050F0006A4615F1180115F11800FCF7D9F9804638
:10510000002846D1210015F11800FFF748F9804624
:1051100000283ED16A46694603A8FCF7C9F98046D3
:10512000002836D1210003A8FFF739F9804600286E
:105130002FD103AA29002800FCF7BAF980460028DD
:1051400027D121002800FFF72AF98046002820D126
:105150006A4603A903A8FCF7ABF98046002818D1DA
:10516000210003A8FFF71BF98046002811D103AAEC
:1051700015F10C0115F10C00FCF79AF98046002896
:1051800007D1210015F10C00FFF709F9804600282E
:10519000FFD16846FBF709F803A8FBF706F840467D
:1051A00006B0BDE8F087000080B2FFFF2DE9F04FA8
:1051B00083B004000D0016001F00681C01905FF012
:1051C000000B5A4601992000FEF76EFE5FF0000AC0
:1051D000AA4516D200208046F6B2B0450ED208FB92
:1051E00005A13800FBF780F914F80A1010FA08F04E
:1051F000084304F80A0018F10108EDE71AF1010A62
:10520000E6E700210122954230D3A05C08408DF8EA
:105210000000A05C4840A0549DF80030A05C10F055
:105220000100D0F10100814614F802C004EB020035
:1052300010F8010C10FB09F010EA0C0C5CEA0303F7
:105240001900A35C04EB020010F8010C10FB09F03C
:105250004340A35404EB020010F8010C50EAC910BB
:1052600004EB020303F8010C521CCCE7BDE8F78FF6
:105270002DE9FC4F9FB004000D002A9E1F992800C5
:10528000FEF7F4FF8046002840F08B800020814626
:10529000012082465FFA8AFA01219DF88000401EB3
:1052A00081408A452CD25FFA8AFA242000FB0AF05A
:1052B000284407005FFA8AFA5146491024204143E6
:1052C00029443800FEF7D2FF8046002869D100202B
:1052D0008346B3450AD23A0039002000FFF76AFA44
:1052E000804600285DD11BF1010BF2E768465FFAAA
:1052F00089F940F8297019F101095FEA4A0AC9E7FA
:105300005FFA89F94A4669462000FFF7FFF88046B0
:10531000002846D100208146012082465FFA8AFAA1
:1053200001219DF88000401E81408A452FD25FFAFE
:105330008AFAD3465846B0F1010B002824D05FFA10
:105340008AFA242000FB0AF005EB0003242000FB6E
:105350000BF005EB00025BFA8AF12420414329445B
:105360002000FFF784FC804600281AD15BFA8AF1FE
:105370002420414305EB010069465FFA89F941F8B1
:10538000290019F10109D5E75FEA4A0AC6E75FFA81
:1053900089F94A4669462000FFF7B8F88046002898
:1053A000FFD1404621B0BDE8F08F2DE9F84F050050
:1053B0000E00170098460A9CC4F3450A5FF0000BE4
:1053C00058464146C0B2C9B2884232D258465146C8
:1053D000C0B2C9B2884201D1012200E00022D2B29B
:1053E0005FFA8BFB242000FB0BF007EB0001300081
:1053F000FAF7A4FF8146002825D158465146C0B28D
:10540000C9B2884201D1012200E00022D2B25FFA83
:105410008BFB242000FB0BF0384410F10C0116F13B
:105420000C00FAF78BFF814600280CD11BF1010B11
:10543000C6E72200D2B2D20931002800FFF78AF96C
:1054400081460028FFD14846BDE8F28F2DE9F04F94
:105450008BB004000D0016001F00DDF85080DDF851
:10546000589001A8FEF783FEDDF854B018F80B0041
:1054700000903B00DBB2320029002000FFF795FFCF
:105480008246002837D1012115F11800FBF705F8F5
:10549000824600282FD14846002808D0179B4A464C
:1054A00029002000FFF7EAFD8246002823D1584654
:1054B000B0F1010B00281ED02A0029002000FFF7C0
:1054C00079F98246002816D118F80B0000903B00AD
:1054D000DBB2320001A92000FFF767FF82460028F7
:1054E00009D101AB2A0029002000FFF7C0FB82464A
:1054F000002800D1DBE701A8FEF765FE50460BB09F
:10550000BDE8F08F2DE9FC4FCFB08046894606A854
:10551000FAF742FE09A8FAF73FFE002118F14C0005
:10552000FAF7E2FF012801D0B848E5E0D8F85C00BE
:10553000B0F5C07F02D35FF0050B01E05FF0040B14
:1055400018F1340150980C30FBF7BBFA002808D151
:1055500018F128015098FBF7B4FA002801D1012472
:1055600000E00024E4B2002C01D01BF1010B5FFA33
:105570008BFBBBF1070F01DB062083465FFA8BFB39
:10558000D8F85C00834501D3022083460121BBF19A
:10559000010081408DF81010D8F85C0050FA8BF0B3
:1055A000401E5FFA8BFBB0FBFBF00590E4B2002CD1
:1055B00002D0D8F8745000E00025002D20D124211D
:1055C0009DF81000FEF7BFFB0500002D03D1DFF8AA
:1055D000300C070069E0059800905B46DBB2509AFA
:1055E00029004046FFF744FE070000285DD1E4B2E1
:1055F000002C05D0C8F874509DF81000C8F8780049
:1056000000214F98FAF770FF012801D1012600E030
:1056100000264F9906A8FAF74AFE0700002844D151
:105620004F9A18F14C0109A8FBF7E7FB0700002887
:105630003BD1F6B2002E01D1012200E00022D2B20D
:1056400009A906A8FAF77AFE070000282DD106ABB3
:105650005A46D2B205990CA8FFF7A8FD5B980390B3
:105660005A980290059801900CA800909DF810306F
:105670002A0049464046FFF7E9FE0700002814D1FA
:10568000F6B2002E01D1012200E00022D2B249463A
:105690004046FFF75FF80700002806D1494640461C
:1056A000FEF7C5FE07000028FFD1002D18D0E4B298
:1056B000002C15D10020824650469DF81010C0B233
:1056C00088420AD25FFA8AFA242000FB0AF02844B2
:1056D000FEF779FD1AF1010AEEE72800FDF7C0F8A0
:1056E00006A8FAF762FD09A8FAF75FFD002F02D0BD
:1056F0004846FEF768FD380051B0BDE8F08F70B540
:1057000005000E002A1D16F1180116F11800FCF70D
:10571000B2FD0400002C17D116F118023100300040
:10572000FBF7C6FE040000280ED129003000FEF76A
:1057300036FE0400002807D1012116F11800FAF7FF
:10574000ACFE04000028FFD1200070BD2DE9F04719
:1057500084B004000D0016001F005FF00009D4F8AB
:1057600058A01AF1070A5FEADA0A6846FAF714FD48
:105770003B00320051466846FCF755FD8046002844
:105780003CD1211D6846FBF79CF9002807D4012174
:105790006846FBF7EBF8804600282FD1F1E7484632
:1057A00010F101090B2802DBDFF8C4052AE0012112
:1057B0006846FBF7E5F90128DADB6A46290028008C
:1057C000FBF776FE8046002818D121002800FEF75E
:1057D000E6FD8046002811D16A4615F1180115F141
:1057E0001800FBF765FE8046002807D1210015F15F
:1057F0001800FEF7D4FD80460028FFD16846FAF76E
:10580000D4FC404604B0BDE8F087000080B0FFFF44
:105810002DE9F0479CB005000E0017009846DDF812
:105820009090DDF894A009A8FAF7B6FC18A8FAF74A
:10583000B3FC6846FAF7B0FC0FA8FAF7ADFC06A86F
:10584000FAF7AAFC0CA8FAF7A7FC03A8FAF7A4FC3D
:1058500015A8FAF7A1FC12A8FAF79EFC18F1180295
:10586000414609A8FBF79DFA0400002C40F079811D
:10587000291D09A8FBF725F9002809D42A1D09A923
:1058800009A8FBF74BFA0400002840F06A81EFE713
:1058900009AA09A918A8FBF70BFE0400002840F08C
:1058A0006081290018A8FEF77AFD0400002840F066
:1058B000588118F1180241466846FBF79EFA040029
:1058C000002840F04E81009800280FD5002168463E
:1058D000FBF756F9002809D02A1D69466846FBF7F0
:1058E00060FA0400002840F03C81ECE76A46694613
:1058F0000FA8FBF7DDFD0400002840F032812900ED
:105900000FA8FEF74CFD0400002840F02A810FAAE2
:1059100018A906A8FBF771FA0400002840F02181BD
:10592000069800280FD5002106A8FBF729F90028C2
:1059300009D02A1D06A906A8FBF733FA040000289F
:1059400040F00F81ECE719F1180249460CA8FBF76B
:1059500028FA0400002840F00481291D0CA8FBF758
:10596000B0F8002809D42A1D0CA90CA8FBF7D6F919
:105970000400002840F0F580EFE719F118024946CD
:1059800003A8FBF73AFA0400002840F0EA800398E5
:1059900000280FD5002103A8FBF7F2F8002809D052
:1059A0002A1D03A903A8FBF7FCF90400002840F016
:1059B000D880ECE709AA03A915A8FBF779FD040034
:1059C000002840F0CE80290015A8FEF7E8FC04006E
:1059D000002840F0C6806A460CA912A8FBF768FDB3
:1059E0000400002840F0BD80290012A8FEF7D7FC73
:1059F0000400002840F0B58012AA15A93800FBF772
:105A0000D0F90400002840F0AC8029003800FEF7EF
:105A1000C6FC0400002840F0A4803A003900380099
:105A2000FBF746FD0400002840F09B802900380069
:105A3000FEF7B5FC0400002840F0938012AA15A9D7
:105A400017F11800FBF7D9F90400002840F089800D
:105A5000B869002811D5002117F11800FBF790F85C
:105A600000280AD02A1D17F1180117F11800FBF7BA
:105A700098F90400002874D1EAE717F1180217F129
:105A8000180117F11800FBF713FD0400002868D176
:105A9000290017F11800FEF782FC0400002860D1ED
:105AA00017F11802514617F11800FBF701FD040029
:105AB000002856D1290017F11800FEF770FC0400E9
:105AC00000284ED10FAA18A93000FBF7F1FC040002
:105AD000002846D129003000FEF761FC04000028B0
